{
  "_format": "hh-sol-artifact-1",
  "contractName": "ActivityManagement",
  "sourceName": "contracts/ActivityManagement.sol",
  "abi": [
    {
      "inputs": [
        {
          "internalType": "address",
          "name": "initialOwner",
          "type": "address"
        }
      ],
      "stateMutability": "nonpayable",
      "type": "constructor"
    },
    {
      "inputs": [
        {
          "internalType": "address",
          "name": "owner",
          "type": "address"
        }
      ],
      "name": "OwnableInvalidOwner",
      "type": "error"
    },
    {
      "inputs": [
        {
          "internalType": "address",
          "name": "account",
          "type": "address"
        }
      ],
      "name": "OwnableUnauthorizedAccount",
      "type": "error"
    },
    {
      "anonymous": false,
      "inputs": [
        {
          "indexed": false,
          "internalType": "uint256",
          "name": "activityId",
          "type": "uint256"
        },
        {
          "indexed": false,
          "internalType": "string",
          "name": "activityName",
          "type": "string"
        }
      ],
      "name": "ActivityAdded",
      "type": "event"
    },
    {
      "anonymous": false,
      "inputs": [
        {
          "indexed": true,
          "internalType": "address",
          "name": "previousOwner",
          "type": "address"
        },
        {
          "indexed": true,
          "internalType": "address",
          "name": "newOwner",
          "type": "address"
        }
      ],
      "name": "OwnershipTransferred",
      "type": "event"
    },
    {
      "inputs": [
        {
          "internalType": "uint256",
          "name": "",
          "type": "uint256"
        }
      ],
      "name": "activityNames",
      "outputs": [
        {
          "internalType": "string",
          "name": "",
          "type": "string"
        }
      ],
      "stateMutability": "view",
      "type": "function"
    },
    {
      "inputs": [
        {
          "internalType": "string",
          "name": "activityName",
          "type": "string"
        }
      ],
      "name": "addActivityName",
      "outputs": [],
      "stateMutability": "nonpayable",
      "type": "function"
    },
    {
      "inputs": [],
      "name": "getActivityCount",
      "outputs": [
        {
          "internalType": "uint256",
          "name": "",
          "type": "uint256"
        }
      ],
      "stateMutability": "view",
      "type": "function"
    },
    {
      "inputs": [
        {
          "internalType": "uint256",
          "name": "activityId",
          "type": "uint256"
        }
      ],
      "name": "getActivityName",
      "outputs": [
        {
          "internalType": "string",
          "name": "",
          "type": "string"
        }
      ],
      "stateMutability": "view",
      "type": "function"
    },
    {
      "inputs": [],
      "name": "owner",
      "outputs": [
        {
          "internalType": "address",
          "name": "",
          "type": "address"
        }
      ],
      "stateMutability": "view",
      "type": "function"
    },
    {
      "inputs": [],
      "name": "renounceOwnership",
      "outputs": [],
      "stateMutability": "nonpayable",
      "type": "function"
    },
    {
      "inputs": [
        {
          "internalType": "address",
          "name": "newOwner",
          "type": "address"
        }
      ],
      "name": "transferOwnership",
      "outputs": [],
      "stateMutability": "nonpayable",
      "type": "function"
    }
  ],
  "bytecode": "0x608060405234801561001057600080fd5b50604051611431380380611431833981810160405281019061003291906103e5565b80600073ffffffffffffffffffffffffffffffffffffffff168173ffffffffffffffffffffffffffffffffffffffff16036100a55760006040517f1e4fbdf700000000000000000000000000000000000000000000000000000000815260040161009c9190610421565b60405180910390fd5b6100b4816102be60201b60201c565b50600180600181540180825580915050600190039060005260206000200160006040518060400160405280600481526020017f4e6f6e65000000000000000000000000000000000000000000000000000000008152509091909150908161011b919061068c565b50600180600181540180825580915050600190039060005260206000200160006040518060400160405280600d81526020017f526566657272616c426f6e75730000000000000000000000000000000000000081525090919091509081610182919061068c565b50600180600181540180825580915050600190039060005260206000200160006040518060400160405280600a81526020017f4461696c794c6f67696e00000000000000000000000000000000000000000000815250909190915090816101e9919061068c565b50600180600181540180825580915050600190039060005260206000200160006040518060400160405280600781526020017f46697368696e670000000000000000000000000000000000000000000000000081525090919091509081610250919061068c565b50600180600181540180825580915050600190039060005260206000200160006040518060400160405280600981526020017f4f70656e43686573740000000000000000000000000000000000000000000000815250909190915090816102b7919061068c565b505061075e565b60008060009054906101000a900473ffffffffffffffffffffffffffffffffffffffff169050816000806101000a81548173ffffffffffffffffffffffffffffffffffffffff021916908373ffffffffffffffffffffffffffffffffffffffff1602179055508173ffffffffffffffffffffffffffffffffffffffff168173ffffffffffffffffffffffffffffffffffffffff167f8be0079c531659141344cd1fd0a4f28419497f9722a3daafe3b4186f6b6457e060405160405180910390a35050565b600080fd5b600073ffffffffffffffffffffffffffffffffffffffff82169050919050565b60006103b282610387565b9050919050565b6103c2816103a7565b81146103cd57600080fd5b50565b6000815190506103df816103b9565b92915050565b6000602082840312156103fb576103fa610382565b5b6000610409848285016103d0565b91505092915050565b61041b816103a7565b82525050565b60006020820190506104366000830184610412565b92915050565b600081519050919050565b7f4e487b7100000000000000000000000000000000000000000000000000000000600052604160045260246000fd5b7f4e487b7100000000000000000000000000000000000000000000000000000000600052602260045260246000fd5b600060028204905060018216806104bd57607f821691505b6020821081036104d0576104cf610476565b5b50919050565b60008190508160005260206000209050919050565b60006020601f8301049050919050565b600082821b905092915050565b6000600883026105387fffffffffffffffffffffffffffffffffffffffffffffffffffffffffffffffff826104fb565b61054286836104fb565b95508019841693508086168417925050509392505050565b6000819050919050565b6000819050919050565b600061058961058461057f8461055a565b610564565b61055a565b9050919050565b6000819050919050565b6105a38361056e565b6105b76105af82610590565b848454610508565b825550505050565b600090565b6105cc6105bf565b6105d781848461059a565b505050565b5b818110156105fb576105f06000826105c4565b6001810190506105dd565b5050565b601f82111561064057610611816104d6565b61061a846104eb565b81016020851015610629578190505b61063d610635856104eb565b8301826105dc565b50505b505050565b600082821c905092915050565b600061066360001984600802610645565b1980831691505092915050565b600061067c8383610652565b9150826002028217905092915050565b6106958261043c565b67ffffffffffffffff8111156106ae576106ad610447565b5b6106b882546104a5565b6106c38282856105ff565b600060209050601f8311600181146106f657600084156106e4578287015190505b6106ee8582610670565b865550610756565b601f198416610704866104d6565b60005b8281101561072c57848901518255600182019150602085019450602081019050610707565b868310156107495784890151610745601f891682610652565b8355505b6001600288020188555050505b505050505050565b610cc48061076d6000396000f3fe608060405234801561001057600080fd5b506004361061007d5760003560e01c80632ed2401b1161005b5780632ed2401b146100ec578063715018a61461011c5780638da5cb5b14610126578063f2fde38b146101445761007d565b80631c2d63561461008257806322ce30bf146100b25780632418da74146100d0575b600080fd5b61009c600480360381019061009791906105b2565b610160565b6040516100a9919061066f565b60405180910390f35b6100ba610210565b6040516100c791906106a0565b60405180910390f35b6100ea60048036038101906100e591906107f0565b61021d565b005b610106600480360381019061010191906105b2565b6102a6565b604051610113919061066f565b60405180910390f35b610124610352565b005b61012e610366565b60405161013b919061087a565b60405180910390f35b61015e600480360381019061015991906108c1565b61038f565b005b606060018281548110610176576101756108ee565b5b90600052602060002001805461018b9061094c565b80601f01602080910402602001604051908101604052809291908181526020018280546101b79061094c565b80156102045780601f106101d957610100808354040283529160200191610204565b820191906000526020600020905b8154815290600101906020018083116101e757829003601f168201915b50505050509050919050565b6000600180549050905090565b610225610415565b6001819080600181540180825580915050600190039060005260206000200160009091909190915090816102599190610b29565b507f7add83d689383995cd6cfe4b4ab1503b373dbce68f818842faf5356066af59006001808054905061028c9190610c2a565b8260405161029b929190610c5e565b60405180910390a150565b600181815481106102b657600080fd5b9060005260206000200160009150905080546102d19061094c565b80601f01602080910402602001604051908101604052809291908181526020018280546102fd9061094c565b801561034a5780601f1061031f5761010080835404028352916020019161034a565b820191906000526020600020905b81548152906001019060200180831161032d57829003601f168201915b505050505081565b61035a610415565b610364600061049c565b565b60008060009054906101000a900473ffffffffffffffffffffffffffffffffffffffff16905090565b610397610415565b600073ffffffffffffffffffffffffffffffffffffffff168173ffffffffffffffffffffffffffffffffffffffff16036104095760006040517f1e4fbdf7000000000000000000000000000000000000000000000000000000008152600401610400919061087a565b60405180910390fd5b6104128161049c565b50565b61041d610560565b73ffffffffffffffffffffffffffffffffffffffff1661043b610366565b73ffffffffffffffffffffffffffffffffffffffff161461049a5761045e610560565b6040517f118cdaa7000000000000000000000000000000000000000000000000000000008152600401610491919061087a565b60405180910390fd5b565b60008060009054906101000a900473ffffffffffffffffffffffffffffffffffffffff169050816000806101000a81548173ffffffffffffffffffffffffffffffffffffffff021916908373ffffffffffffffffffffffffffffffffffffffff1602179055508173ffffffffffffffffffffffffffffffffffffffff168173ffffffffffffffffffffffffffffffffffffffff167f8be0079c531659141344cd1fd0a4f28419497f9722a3daafe3b4186f6b6457e060405160405180910390a35050565b600033905090565b6000604051905090565b600080fd5b600080fd5b6000819050919050565b61058f8161057c565b811461059a57600080fd5b50565b6000813590506105ac81610586565b92915050565b6000602082840312156105c8576105c7610572565b5b60006105d68482850161059d565b91505092915050565b600081519050919050565b600082825260208201905092915050565b60005b838110156106195780820151818401526020810190506105fe565b60008484015250505050565b6000601f19601f8301169050919050565b6000610641826105df565b61064b81856105ea565b935061065b8185602086016105fb565b61066481610625565b840191505092915050565b600060208201905081810360008301526106898184610636565b905092915050565b61069a8161057c565b82525050565b60006020820190506106b56000830184610691565b92915050565b600080fd5b600080fd5b7f4e487b7100000000000000000000000000000000000000000000000000000000600052604160045260246000fd5b6106fd82610625565b810181811067ffffffffffffffff8211171561071c5761071b6106c5565b5b80604052505050565b600061072f610568565b905061073b82826106f4565b919050565b600067ffffffffffffffff82111561075b5761075a6106c5565b5b61076482610625565b9050602081019050919050565b82818337600083830152505050565b600061079361078e84610740565b610725565b9050828152602081018484840111156107af576107ae6106c0565b5b6107ba848285610771565b509392505050565b600082601f8301126107d7576107d66106bb565b5b81356107e7848260208601610780565b91505092915050565b60006020828403121561080657610805610572565b5b600082013567ffffffffffffffff81111561082457610823610577565b5b610830848285016107c2565b91505092915050565b600073ffffffffffffffffffffffffffffffffffffffff82169050919050565b600061086482610839565b9050919050565b61087481610859565b82525050565b600060208201905061088f600083018461086b565b92915050565b61089e81610859565b81146108a957600080fd5b50565b6000813590506108bb81610895565b92915050565b6000602082840312156108d7576108d6610572565b5b60006108e5848285016108ac565b91505092915050565b7f4e487b7100000000000000000000000000000000000000000000000000000000600052603260045260246000fd5b7f4e487b7100000000000000000000000000000000000000000000000000000000600052602260045260246000fd5b6000600282049050600182168061096457607f821691505b6020821081036109775761097661091d565b5b50919050565b60008190508160005260206000209050919050565b60006020601f8301049050919050565b600082821b905092915050565b6000600883026109df7fffffffffffffffffffffffffffffffffffffffffffffffffffffffffffffffff826109a2565b6109e986836109a2565b95508019841693508086168417925050509392505050565b6000819050919050565b6000610a26610a21610a1c8461057c565b610a01565b61057c565b9050919050565b6000819050919050565b610a4083610a0b565b610a54610a4c82610a2d565b8484546109af565b825550505050565b600090565b610a69610a5c565b610a74818484610a37565b505050565b5b81811015610a9857610a8d600082610a61565b600181019050610a7a565b5050565b601f821115610add57610aae8161097d565b610ab784610992565b81016020851015610ac6578190505b610ada610ad285610992565b830182610a79565b50505b505050565b600082821c905092915050565b6000610b0060001984600802610ae2565b1980831691505092915050565b6000610b198383610aef565b9150826002028217905092915050565b610b32826105df565b67ffffffffffffffff811115610b4b57610b4a6106c5565b5b610b55825461094c565b610b60828285610a9c565b600060209050601f831160018114610b935760008415610b81578287015190505b610b8b8582610b0d565b865550610bf3565b601f198416610ba18661097d565b60005b82811015610bc957848901518255600182019150602085019450602081019050610ba4565b86831015610be65784890151610be2601f891682610aef565b8355505b6001600288020188555050505b505050505050565b7f4e487b7100000000000000000000000000000000000000000000000000000000600052601160045260246000fd5b6000610c358261057c565b9150610c408361057c565b9250828203905081811115610c5857610c57610bfb565b5b92915050565b6000604082019050610c736000830185610691565b8181036020830152610c858184610636565b9050939250505056fea26469706673582212201ed72787d1928af0a7ebac066588da9c5d491ff2dc2610679a7101c33f27d08264736f6c634300081c0033",
  "linkReferences": {},
  "deployedLinkReferences": {}
}