{
  "_format": "hh-sol-artifact-1",
  "contractName": "PointManagement",
  "sourceName": "contracts/PointManagement.sol",
  "abi": [
    {
      "inputs": [],
      "name": "InvalidInitialization",
      "type": "error"
    },
    {
      "inputs": [],
      "name": "NotInitializing",
      "type": "error"
    },
    {
      "anonymous": false,
      "inputs": [
        {
          "indexed": false,
          "internalType": "uint64",
          "name": "version",
          "type": "uint64"
        }
      ],
      "name": "Initialized",
      "type": "event"
    },
    {
      "anonymous": false,
      "inputs": [
        {
          "indexed": true,
          "internalType": "address",
          "name": "user",
          "type": "address"
        },
        {
          "indexed": true,
          "internalType": "string",
          "name": "activity",
          "type": "string"
        },
        {
          "indexed": false,
          "internalType": "uint256",
          "name": "points",
          "type": "uint256"
        }
      ],
      "name": "PointsAdded",
      "type": "event"
    },
    {
      "inputs": [
        {
          "internalType": "address",
          "name": "user",
          "type": "address"
        },
        {
          "internalType": "uint256",
          "name": "activityId",
          "type": "uint256"
        },
        {
          "internalType": "uint256",
          "name": "point",
          "type": "uint256"
        }
      ],
      "name": "addPoints",
      "outputs": [],
      "stateMutability": "nonpayable",
      "type": "function"
    },
    {
      "inputs": [
        {
          "internalType": "address",
          "name": "user",
          "type": "address"
        }
      ],
      "name": "getActivityPoints",
      "outputs": [
        {
          "internalType": "uint256",
          "name": "",
          "type": "uint256"
        }
      ],
      "stateMutability": "view",
      "type": "function"
    },
    {
      "inputs": [
        {
          "internalType": "address",
          "name": "user",
          "type": "address"
        }
      ],
      "name": "getDailyQuestPoints",
      "outputs": [
        {
          "internalType": "uint256",
          "name": "",
          "type": "uint256"
        }
      ],
      "stateMutability": "view",
      "type": "function"
    },
    {
      "inputs": [
        {
          "internalType": "address",
          "name": "user",
          "type": "address"
        }
      ],
      "name": "getUserPoints",
      "outputs": [
        {
          "internalType": "uint256",
          "name": "",
          "type": "uint256"
        }
      ],
      "stateMutability": "view",
      "type": "function"
    },
    {
      "inputs": [
        {
          "internalType": "address",
          "name": "_sunnyMaster",
          "type": "address"
        }
      ],
      "name": "initialize",
      "outputs": [],
      "stateMutability": "nonpayable",
      "type": "function"
    },
    {
      "inputs": [],
      "name": "master",
      "outputs": [
        {
          "internalType": "address",
          "name": "",
          "type": "address"
        }
      ],
      "stateMutability": "view",
      "type": "function"
    },
    {
      "inputs": [
        {
          "internalType": "address",
          "name": "",
          "type": "address"
        }
      ],
      "name": "points",
      "outputs": [
        {
          "internalType": "uint256",
          "name": "totalPoints",
          "type": "uint256"
        },
        {
          "internalType": "uint256",
          "name": "dailyQuestPoints",
          "type": "uint256"
        },
        {
          "internalType": "uint256",
          "name": "activityPoints",
          "type": "uint256"
        }
      ],
      "stateMutability": "view",
      "type": "function"
    },
    {
      "inputs": [
        {
          "internalType": "address",
          "name": "_masterAddress",
          "type": "address"
        }
      ],
      "name": "setMasterAddress",
      "outputs": [],
      "stateMutability": "nonpayable",
      "type": "function"
    }
  ],
  "bytecode": "0x6080604052348015600f57600080fd5b506115008061001f6000396000f3fe608060405234801561001057600080fd5b50600436106100885760003560e01c80635d06a6111161005b5780635d06a6111461013b578063aeefe31f14610157578063c4d66de814610187578063ee97f7f3146101a357610088565b806312029b191461008d57806323d14d60146100bd578063358b8166146100d957806337c367aa1461010b575b600080fd5b6100a760048036038101906100a29190610e0e565b6101c1565b6040516100b49190610e54565b60405180910390f35b6100d760048036038101906100d29190610e9b565b61020d565b005b6100f360048036038101906100ee9190610e0e565b610789565b60405161010293929190610eee565b60405180910390f35b61012560048036038101906101209190610e0e565b6107b3565b6040516101329190610e54565b60405180910390f35b61015560048036038101906101509190610e0e565b6107ff565b005b610171600480360381019061016c9190610e0e565b610940565b60405161017e9190610e54565b60405180910390f35b6101a1600480360381019061019c9190610e0e565b61098c565b005b6101ab610b1b565b6040516101b89190610f34565b60405180910390f35b6000600160008373ffffffffffffffffffffffffffffffffffffffff1673ffffffffffffffffffffffffffffffffffffffff168152602001908152602001600020600101549050919050565b8260008060009054906101000a900473ffffffffffffffffffffffffffffffffffffffff1673ffffffffffffffffffffffffffffffffffffffff16638e1bde957fd0461d3440b6fa455eda13949d231d62caeb93861d60d66dc37870a904b6b9976040518263ffffffff1660e01b815260040161028a9190610f68565b602060405180830381865afa1580156102a7573d6000803e3d6000fd5b505050506040513d601f19601f820116820180604052508101906102cb9190610f98565b90508073ffffffffffffffffffffffffffffffffffffffff16633af32abf836040518263ffffffff1660e01b81526004016103069190610f34565b602060405180830381865afa158015610323573d6000803e3d6000fd5b505050506040513d601f19601f820116820180604052508101906103479190610ffd565b610386576040517f08c379a000000000000000000000000000000000000000000000000000000000815260040161037d90611087565b60405180910390fd5b338073ffffffffffffffffffffffffffffffffffffffff1660008054906101000a900473ffffffffffffffffffffffffffffffffffffffff1673ffffffffffffffffffffffffffffffffffffffff16638da5cb5b6040518163ffffffff1660e01b8152600401602060405180830381865afa158015610409573d6000803e3d6000fd5b505050506040513d601f19601f8201168201806040525081019061042d9190610f98565b73ffffffffffffffffffffffffffffffffffffffff1614610483576040517f08c379a000000000000000000000000000000000000000000000000000000000815260040161047a906110f3565b60405180910390fd5b60008054906101000a900473ffffffffffffffffffffffffffffffffffffffff1673ffffffffffffffffffffffffffffffffffffffff16635c975abb6040518163ffffffff1660e01b8152600401602060405180830381865afa1580156104ee573d6000803e3d6000fd5b505050506040513d601f19601f820116820180604052508101906105129190610ffd565b15610552576040517f08c379a00000000000000000000000000000000000000000000000000000000081526004016105499061115f565b60405180910390fd5b60008060009054906101000a900473ffffffffffffffffffffffffffffffffffffffff1673ffffffffffffffffffffffffffffffffffffffff1663a03379cd6040518163ffffffff1660e01b8152600401602060405180830381865afa1580156105c0573d6000803e3d6000fd5b505050506040513d601f19601f820116820180604052508101906105e49190610f98565b905060008173ffffffffffffffffffffffffffffffffffffffff16631c2d6356886040518263ffffffff1660e01b81526004016106219190610e54565b600060405180830381865afa15801561063e573d6000803e3d6000fd5b505050506040513d6000823e3d601f19601f8201168201806040525081019061066791906112e0565b905085600160008a73ffffffffffffffffffffffffffffffffffffffff1673ffffffffffffffffffffffffffffffffffffffff16815260200190815260200160002060020160008282546106bb9190611358565b9250508190555085600160008a73ffffffffffffffffffffffffffffffffffffffff1673ffffffffffffffffffffffffffffffffffffffff16815260200190815260200160002060000160008282546107149190611358565b925050819055508060405161072991906113d3565b60405180910390208873ffffffffffffffffffffffffffffffffffffffff167f1779922ed30f40fbb217ea9165b8ee0f2f2369809997fcb0691fa302aab66219886040516107779190610e54565b60405180910390a35050505050505050565b60016020528060005260406000206000915090508060000154908060010154908060020154905083565b6000600160008373ffffffffffffffffffffffffffffffffffffffff1673ffffffffffffffffffffffffffffffffffffffff168152602001908152602001600020600201549050919050565b338073ffffffffffffffffffffffffffffffffffffffff1660008054906101000a900473ffffffffffffffffffffffffffffffffffffffff1673ffffffffffffffffffffffffffffffffffffffff16638da5cb5b6040518163ffffffff1660e01b8152600401602060405180830381865afa158015610882573d6000803e3d6000fd5b505050506040513d601f19601f820116820180604052508101906108a69190610f98565b73ffffffffffffffffffffffffffffffffffffffff16146108fc576040517f08c379a00000000000000000000000000000000000000000000000000000000081526004016108f3906110f3565b60405180910390fd5b816000806101000a81548173ffffffffffffffffffffffffffffffffffffffff021916908373ffffffffffffffffffffffffffffffffffffffff1602179055505050565b6000600160008373ffffffffffffffffffffffffffffffffffffffff1673ffffffffffffffffffffffffffffffffffffffff168152602001908152602001600020600001549050919050565b6000610996610b3f565b905060008160000160089054906101000a900460ff1615905060008260000160009054906101000a900467ffffffffffffffff1690506000808267ffffffffffffffff161480156109e45750825b9050600060018367ffffffffffffffff16148015610a19575060003073ffffffffffffffffffffffffffffffffffffffff163b145b905081158015610a27575080155b15610a5e576040517ff92ee8a900000000000000000000000000000000000000000000000000000000815260040160405180910390fd5b60018560000160006101000a81548167ffffffffffffffff021916908367ffffffffffffffff1602179055508315610aae5760018560000160086101000a81548160ff0219169083151502179055505b610ab786610b67565b8315610b135760008560000160086101000a81548160ff0219169083151502179055507fc7f505b2f371ae2175ee4913f4499e1f2633a7b5936321eed1cdaeb6115181d26001604051610b0a9190611443565b60405180910390a15b505050505050565b60008054906101000a900473ffffffffffffffffffffffffffffffffffffffff1681565b60007ff0c57e16840df040f15088dc2f81fe391c3923bec73e23a9662efc9c229c6a00905090565b6000610b71610b3f565b905060008160000160089054906101000a900460ff1615905060008260000160009054906101000a900467ffffffffffffffff1690506000808267ffffffffffffffff16148015610bbf5750825b9050600060018367ffffffffffffffff16148015610bf4575060003073ffffffffffffffffffffffffffffffffffffffff163b145b905081158015610c02575080155b15610c39576040517ff92ee8a900000000000000000000000000000000000000000000000000000000815260040160405180910390fd5b60018560000160006101000a81548167ffffffffffffffff021916908367ffffffffffffffff1602179055508315610c895760018560000160086101000a81548160ff0219169083151502179055505b600073ffffffffffffffffffffffffffffffffffffffff168673ffffffffffffffffffffffffffffffffffffffff1603610cf8576040517f08c379a0000000000000000000000000000000000000000000000000000000008152600401610cef906114aa565b60405180910390fd5b856000806101000a81548173ffffffffffffffffffffffffffffffffffffffff021916908373ffffffffffffffffffffffffffffffffffffffff1602179055508315610d945760008560000160086101000a81548160ff0219169083151502179055507fc7f505b2f371ae2175ee4913f4499e1f2633a7b5936321eed1cdaeb6115181d26001604051610d8b9190611443565b60405180910390a15b505050505050565b6000604051905090565b600080fd5b600080fd5b600073ffffffffffffffffffffffffffffffffffffffff82169050919050565b6000610ddb82610db0565b9050919050565b610deb81610dd0565b8114610df657600080fd5b50565b600081359050610e0881610de2565b92915050565b600060208284031215610e2457610e23610da6565b5b6000610e3284828501610df9565b91505092915050565b6000819050919050565b610e4e81610e3b565b82525050565b6000602082019050610e696000830184610e45565b92915050565b610e7881610e3b565b8114610e8357600080fd5b50565b600081359050610e9581610e6f565b92915050565b600080600060608486031215610eb457610eb3610da6565b5b6000610ec286828701610df9565b9350506020610ed386828701610e86565b9250506040610ee486828701610e86565b9150509250925092565b6000606082019050610f036000830186610e45565b610f106020830185610e45565b610f1d6040830184610e45565b949350505050565b610f2e81610dd0565b82525050565b6000602082019050610f496000830184610f25565b92915050565b6000819050919050565b610f6281610f4f565b82525050565b6000602082019050610f7d6000830184610f59565b92915050565b600081519050610f9281610de2565b92915050565b600060208284031215610fae57610fad610da6565b5b6000610fbc84828501610f83565b91505092915050565b60008115159050919050565b610fda81610fc5565b8114610fe557600080fd5b50565b600081519050610ff781610fd1565b92915050565b60006020828403121561101357611012610da6565b5b600061102184828501610fe8565b91505092915050565b600082825260208201905092915050565b7f55736572206e6f742077686974656c6973746564000000000000000000000000600082015250565b600061107160148361102a565b915061107c8261103b565b602082019050919050565b600060208201905081810360008301526110a081611064565b9050919050565b7f556e617574686f72697a6564204163636f756e74000000000000000000000000600082015250565b60006110dd60148361102a565b91506110e8826110a7565b602082019050919050565b6000602082019050818103600083015261110c816110d0565b9050919050565b7f436f6e7472616374205061757365640000000000000000000000000000000000600082015250565b6000611149600f8361102a565b915061115482611113565b602082019050919050565b600060208201905081810360008301526111788161113c565b9050919050565b600080fd5b600080fd5b6000601f19601f8301169050919050565b7f4e487b7100000000000000000000000000000000000000000000000000000000600052604160045260246000fd5b6111d282611189565b810181811067ffffffffffffffff821117156111f1576111f061119a565b5b80604052505050565b6000611204610d9c565b905061121082826111c9565b919050565b600067ffffffffffffffff8211156112305761122f61119a565b5b61123982611189565b9050602081019050919050565b60005b83811015611264578082015181840152602081019050611249565b60008484015250505050565b600061128361127e84611215565b6111fa565b90508281526020810184848401111561129f5761129e611184565b5b6112aa848285611246565b509392505050565b600082601f8301126112c7576112c661117f565b5b81516112d7848260208601611270565b91505092915050565b6000602082840312156112f6576112f5610da6565b5b600082015167ffffffffffffffff81111561131457611313610dab565b5b611320848285016112b2565b91505092915050565b7f4e487b7100000000000000000000000000000000000000000000000000000000600052601160045260246000fd5b600061136382610e3b565b915061136e83610e3b565b925082820190508082111561138657611385611329565b5b92915050565b600081519050919050565b600081905092915050565b60006113ad8261138c565b6113b78185611397565b93506113c7818560208601611246565b80840191505092915050565b60006113df82846113a2565b915081905092915050565b6000819050919050565b600067ffffffffffffffff82169050919050565b6000819050919050565b600061142d611428611423846113ea565b611408565b6113f4565b9050919050565b61143d81611412565b82525050565b60006020820190506114586000830184611434565b92915050565b7f4d617374657220616464726573732063616e6e6f74206265207a65726f000000600082015250565b6000611494601d8361102a565b915061149f8261145e565b602082019050919050565b600060208201905081810360008301526114c381611487565b905091905056fea26469706673582212207eadb66fb7b2b41398bb0a5ba24abf32da3ba8558ef5ff7627dc9c1a7f117f8764736f6c634300081c0033",
  "linkReferences": {},
  "deployedLinkReferences": {}
}