{
  "_format": "hh-sol-artifact-1",
  "contractName": "UserManagement",
  "sourceName": "contracts/UserManagement.sol",
  "abi": [
    {
      "inputs": [],
      "name": "InvalidInitialization",
      "type": "error"
    },
    {
      "inputs": [],
      "name": "NotInitializing",
      "type": "error"
    },
    {
      "inputs": [],
      "name": "UserAlreadyWhitelisted",
      "type": "error"
    },
    {
      "anonymous": false,
      "inputs": [
        {
          "indexed": true,
          "internalType": "address",
          "name": "user",
          "type": "address"
        },
        {
          "indexed": false,
          "internalType": "uint256",
          "name": "pointsEarned",
          "type": "uint256"
        }
      ],
      "name": "DailyLogin",
      "type": "event"
    },
    {
      "anonymous": false,
      "inputs": [
        {
          "indexed": false,
          "internalType": "uint64",
          "name": "version",
          "type": "uint64"
        }
      ],
      "name": "Initialized",
      "type": "event"
    },
    {
      "anonymous": false,
      "inputs": [
        {
          "indexed": true,
          "internalType": "address",
          "name": "user",
          "type": "address"
        },
        {
          "indexed": false,
          "internalType": "bool",
          "name": "whitelisted",
          "type": "bool"
        }
      ],
      "name": "WhitelistAdded",
      "type": "event"
    },
    {
      "inputs": [
        {
          "internalType": "address",
          "name": "user",
          "type": "address"
        }
      ],
      "name": "addToWhitelist",
      "outputs": [],
      "stateMutability": "nonpayable",
      "type": "function"
    },
    {
      "inputs": [
        {
          "internalType": "address",
          "name": "_sunnyMaster",
          "type": "address"
        }
      ],
      "name": "initialize",
      "outputs": [],
      "stateMutability": "nonpayable",
      "type": "function"
    },
    {
      "inputs": [
        {
          "internalType": "address",
          "name": "user",
          "type": "address"
        }
      ],
      "name": "isWhitelisted",
      "outputs": [
        {
          "internalType": "bool",
          "name": "",
          "type": "bool"
        }
      ],
      "stateMutability": "view",
      "type": "function"
    },
    {
      "inputs": [],
      "name": "master",
      "outputs": [
        {
          "internalType": "address",
          "name": "",
          "type": "address"
        }
      ],
      "stateMutability": "view",
      "type": "function"
    },
    {
      "inputs": [
        {
          "internalType": "address",
          "name": "user",
          "type": "address"
        }
      ],
      "name": "removeWhitelist",
      "outputs": [],
      "stateMutability": "nonpayable",
      "type": "function"
    },
    {
      "inputs": [
        {
          "internalType": "address",
          "name": "_masterAddress",
          "type": "address"
        }
      ],
      "name": "setMasterAddress",
      "outputs": [],
      "stateMutability": "nonpayable",
      "type": "function"
    },
    {
      "inputs": [
        {
          "internalType": "address",
          "name": "",
          "type": "address"
        }
      ],
      "name": "users",
      "outputs": [
        {
          "internalType": "bool",
          "name": "whitelisted",
          "type": "bool"
        }
      ],
      "stateMutability": "view",
      "type": "function"
    }
  ],
  "bytecode": "0x6080604052348015600f57600080fd5b506110498061001f6000396000f3fe608060405234801561001057600080fd5b506004361061007d5760003560e01c8063a87430ba1161005b578063a87430ba146100ea578063c4d66de81461011a578063e43252d714610136578063ee97f7f3146101525761007d565b80633af32abf146100825780635d06a611146100b257806378c8cda7146100ce575b600080fd5b61009c60048036038101906100979190610d22565b610170565b6040516100a99190610d6a565b60405180910390f35b6100cc60048036038101906100c79190610d22565b6101c9565b005b6100e860048036038101906100e39190610d22565b61030a565b005b61010460048036038101906100ff9190610d22565b610584565b6040516101119190610d6a565b60405180910390f35b610134600480360381019061012f9190610d22565b6105af565b005b610150600480360381019061014b9190610d22565b61073e565b005b61015a610a3e565b6040516101679190610d94565b60405180910390f35b6000600160008373ffffffffffffffffffffffffffffffffffffffff1673ffffffffffffffffffffffffffffffffffffffff16815260200190815260200160002060000160009054906101000a900460ff169050919050565b338073ffffffffffffffffffffffffffffffffffffffff1660008054906101000a900473ffffffffffffffffffffffffffffffffffffffff1673ffffffffffffffffffffffffffffffffffffffff16638da5cb5b6040518163ffffffff1660e01b8152600401602060405180830381865afa15801561024c573d6000803e3d6000fd5b505050506040513d601f19601f820116820180604052508101906102709190610dc4565b73ffffffffffffffffffffffffffffffffffffffff16146102c6576040517f08c379a00000000000000000000000000000000000000000000000000000000081526004016102bd90610e4e565b60405180910390fd5b816000806101000a81548173ffffffffffffffffffffffffffffffffffffffff021916908373ffffffffffffffffffffffffffffffffffffffff1602179055505050565b338073ffffffffffffffffffffffffffffffffffffffff1660008054906101000a900473ffffffffffffffffffffffffffffffffffffffff1673ffffffffffffffffffffffffffffffffffffffff16638da5cb5b6040518163ffffffff1660e01b8152600401602060405180830381865afa15801561038d573d6000803e3d6000fd5b505050506040513d601f19601f820116820180604052508101906103b19190610dc4565b73ffffffffffffffffffffffffffffffffffffffff1614610407576040517f08c379a00000000000000000000000000000000000000000000000000000000081526004016103fe90610e4e565b60405180910390fd5b60008054906101000a900473ffffffffffffffffffffffffffffffffffffffff1673ffffffffffffffffffffffffffffffffffffffff16635c975abb6040518163ffffffff1660e01b8152600401602060405180830381865afa158015610472573d6000803e3d6000fd5b505050506040513d601f19601f820116820180604052508101906104969190610e9a565b156104d6576040517f08c379a00000000000000000000000000000000000000000000000000000000081526004016104cd90610f13565b60405180910390fd5b6000600160008473ffffffffffffffffffffffffffffffffffffffff1673ffffffffffffffffffffffffffffffffffffffff16815260200190815260200160002060000160006101000a81548160ff0219169083151502179055508173ffffffffffffffffffffffffffffffffffffffff167fa2bbb16ff85c602404a1b34adbc6ed0d773b2a13ff86b91bc4670ac961e88b1860006040516105789190610d6a565b60405180910390a25050565b60016020528060005260406000206000915090508060000160009054906101000a900460ff16905081565b60006105b9610a62565b905060008160000160089054906101000a900460ff1615905060008260000160009054906101000a900467ffffffffffffffff1690506000808267ffffffffffffffff161480156106075750825b9050600060018367ffffffffffffffff1614801561063c575060003073ffffffffffffffffffffffffffffffffffffffff163b145b90508115801561064a575080155b15610681576040517ff92ee8a900000000000000000000000000000000000000000000000000000000815260040160405180910390fd5b60018560000160006101000a81548167ffffffffffffffff021916908367ffffffffffffffff16021790555083156106d15760018560000160086101000a81548160ff0219169083151502179055505b6106da86610a8a565b83156107365760008560000160086101000a81548160ff0219169083151502179055507fc7f505b2f371ae2175ee4913f4499e1f2633a7b5936321eed1cdaeb6115181d2600160405161072d9190610f8c565b60405180910390a15b505050505050565b328073ffffffffffffffffffffffffffffffffffffffff1660008054906101000a900473ffffffffffffffffffffffffffffffffffffffff1673ffffffffffffffffffffffffffffffffffffffff16638da5cb5b6040518163ffffffff1660e01b8152600401602060405180830381865afa1580156107c1573d6000803e3d6000fd5b505050506040513d601f19601f820116820180604052508101906107e59190610dc4565b73ffffffffffffffffffffffffffffffffffffffff161461083b576040517f08c379a000000000000000000000000000000000000000000000000000000000815260040161083290610e4e565b60405180910390fd5b60008054906101000a900473ffffffffffffffffffffffffffffffffffffffff1673ffffffffffffffffffffffffffffffffffffffff16635c975abb6040518163ffffffff1660e01b8152600401602060405180830381865afa1580156108a6573d6000803e3d6000fd5b505050506040513d601f19601f820116820180604052508101906108ca9190610e9a565b1561090a576040517f08c379a000000000000000000000000000000000000000000000000000000000815260040161090190610f13565b60405180910390fd5b600160008373ffffffffffffffffffffffffffffffffffffffff1673ffffffffffffffffffffffffffffffffffffffff16815260200190815260200160002060000160009054906101000a900460ff1615610991576040517fad8a9d4500000000000000000000000000000000000000000000000000000000815260040160405180910390fd5b60018060008473ffffffffffffffffffffffffffffffffffffffff1673ffffffffffffffffffffffffffffffffffffffff16815260200190815260200160002060000160006101000a81548160ff0219169083151502179055508173ffffffffffffffffffffffffffffffffffffffff167fa2bbb16ff85c602404a1b34adbc6ed0d773b2a13ff86b91bc4670ac961e88b186001604051610a329190610d6a565b60405180910390a25050565b60008054906101000a900473ffffffffffffffffffffffffffffffffffffffff1681565b60007ff0c57e16840df040f15088dc2f81fe391c3923bec73e23a9662efc9c229c6a00905090565b6000610a94610a62565b905060008160000160089054906101000a900460ff1615905060008260000160009054906101000a900467ffffffffffffffff1690506000808267ffffffffffffffff16148015610ae25750825b9050600060018367ffffffffffffffff16148015610b17575060003073ffffffffffffffffffffffffffffffffffffffff163b145b905081158015610b25575080155b15610b5c576040517ff92ee8a900000000000000000000000000000000000000000000000000000000815260040160405180910390fd5b60018560000160006101000a81548167ffffffffffffffff021916908367ffffffffffffffff1602179055508315610bac5760018560000160086101000a81548160ff0219169083151502179055505b600073ffffffffffffffffffffffffffffffffffffffff168673ffffffffffffffffffffffffffffffffffffffff1603610c1b576040517f08c379a0000000000000000000000000000000000000000000000000000000008152600401610c1290610ff3565b60405180910390fd5b856000806101000a81548173ffffffffffffffffffffffffffffffffffffffff021916908373ffffffffffffffffffffffffffffffffffffffff1602179055508315610cb75760008560000160086101000a81548160ff0219169083151502179055507fc7f505b2f371ae2175ee4913f4499e1f2633a7b5936321eed1cdaeb6115181d26001604051610cae9190610f8c565b60405180910390a15b505050505050565b600080fd5b600073ffffffffffffffffffffffffffffffffffffffff82169050919050565b6000610cef82610cc4565b9050919050565b610cff81610ce4565b8114610d0a57600080fd5b50565b600081359050610d1c81610cf6565b92915050565b600060208284031215610d3857610d37610cbf565b5b6000610d4684828501610d0d565b91505092915050565b60008115159050919050565b610d6481610d4f565b82525050565b6000602082019050610d7f6000830184610d5b565b92915050565b610d8e81610ce4565b82525050565b6000602082019050610da96000830184610d85565b92915050565b600081519050610dbe81610cf6565b92915050565b600060208284031215610dda57610dd9610cbf565b5b6000610de884828501610daf565b91505092915050565b600082825260208201905092915050565b7f556e617574686f72697a6564204163636f756e74000000000000000000000000600082015250565b6000610e38601483610df1565b9150610e4382610e02565b602082019050919050565b60006020820190508181036000830152610e6781610e2b565b9050919050565b610e7781610d4f565b8114610e8257600080fd5b50565b600081519050610e9481610e6e565b92915050565b600060208284031215610eb057610eaf610cbf565b5b6000610ebe84828501610e85565b91505092915050565b7f436f6e7472616374205061757365640000000000000000000000000000000000600082015250565b6000610efd600f83610df1565b9150610f0882610ec7565b602082019050919050565b60006020820190508181036000830152610f2c81610ef0565b9050919050565b6000819050919050565b600067ffffffffffffffff82169050919050565b6000819050919050565b6000610f76610f71610f6c84610f33565b610f51565b610f3d565b9050919050565b610f8681610f5b565b82525050565b6000602082019050610fa16000830184610f7d565b92915050565b7f4d617374657220616464726573732063616e6e6f74206265207a65726f000000600082015250565b6000610fdd601d83610df1565b9150610fe882610fa7565b602082019050919050565b6000602082019050818103600083015261100c81610fd0565b905091905056fea2646970667358221220e3325cbaa2c19afc488ff46dbe21166e2794386a7da35b2bfd170830a4d1a8e164736f6c634300081c0033",
  "linkReferences": {},
  "deployedLinkReferences": {}
}