{
  "_format": "hh-sol-artifact-1",
  "contractName": "SunnysideMaster",
  "sourceName": "contracts/SunnysideMaster.sol",
  "abi": [
    {
      "inputs": [],
      "name": "AlreadyReferred",
      "type": "error"
    },
    {
      "inputs": [],
      "name": "CannotReferSelf",
      "type": "error"
    },
    {
      "inputs": [],
      "name": "EnforcedPause",
      "type": "error"
    },
    {
      "inputs": [],
      "name": "ExpectedPause",
      "type": "error"
    },
    {
      "inputs": [],
      "name": "InvalidInitialization",
      "type": "error"
    },
    {
      "inputs": [],
      "name": "NotInitializing",
      "type": "error"
    },
    {
      "inputs": [
        {
          "internalType": "address",
          "name": "owner",
          "type": "address"
        }
      ],
      "name": "OwnableInvalidOwner",
      "type": "error"
    },
    {
      "inputs": [
        {
          "internalType": "address",
          "name": "account",
          "type": "address"
        }
      ],
      "name": "OwnableUnauthorizedAccount",
      "type": "error"
    },
    {
      "inputs": [],
      "name": "ReentrancyGuardReentrantCall",
      "type": "error"
    },
    {
      "inputs": [],
      "name": "ReferrerNotWhitelisted",
      "type": "error"
    },
    {
      "inputs": [],
      "name": "UserAlreadyWhitelisted",
      "type": "error"
    },
    {
      "inputs": [],
      "name": "UserNotWhitelisted",
      "type": "error"
    },
    {
      "anonymous": false,
      "inputs": [
        {
          "indexed": false,
          "internalType": "uint64",
          "name": "version",
          "type": "uint64"
        }
      ],
      "name": "Initialized",
      "type": "event"
    },
    {
      "anonymous": false,
      "inputs": [
        {
          "indexed": true,
          "internalType": "bytes32",
          "name": "id",
          "type": "bytes32"
        },
        {
          "indexed": false,
          "internalType": "address",
          "name": "contractAddress",
          "type": "address"
        }
      ],
      "name": "ManagementAddressUpdated",
      "type": "event"
    },
    {
      "anonymous": false,
      "inputs": [
        {
          "indexed": true,
          "internalType": "address",
          "name": "previousOwner",
          "type": "address"
        },
        {
          "indexed": true,
          "internalType": "address",
          "name": "newOwner",
          "type": "address"
        }
      ],
      "name": "OwnershipTransferred",
      "type": "event"
    },
    {
      "anonymous": false,
      "inputs": [
        {
          "indexed": false,
          "internalType": "address",
          "name": "account",
          "type": "address"
        }
      ],
      "name": "Paused",
      "type": "event"
    },
    {
      "anonymous": false,
      "inputs": [
        {
          "indexed": false,
          "internalType": "address",
          "name": "account",
          "type": "address"
        }
      ],
      "name": "Unpaused",
      "type": "event"
    },
    {
      "inputs": [],
      "name": "getActivityManager",
      "outputs": [
        {
          "internalType": "address",
          "name": "",
          "type": "address"
        }
      ],
      "stateMutability": "view",
      "type": "function"
    },
    {
      "inputs": [
        {
          "internalType": "bytes32",
          "name": "id",
          "type": "bytes32"
        }
      ],
      "name": "getManagementAddress",
      "outputs": [
        {
          "internalType": "address",
          "name": "",
          "type": "address"
        }
      ],
      "stateMutability": "view",
      "type": "function"
    },
    {
      "inputs": [
        {
          "internalType": "address",
          "name": "_owner",
          "type": "address"
        },
        {
          "internalType": "address",
          "name": "_activityManager",
          "type": "address"
        }
      ],
      "name": "initialize",
      "outputs": [],
      "stateMutability": "nonpayable",
      "type": "function"
    },
    {
      "inputs": [],
      "name": "owner",
      "outputs": [
        {
          "internalType": "address",
          "name": "",
          "type": "address"
        }
      ],
      "stateMutability": "view",
      "type": "function"
    },
    {
      "inputs": [],
      "name": "pauseContract",
      "outputs": [],
      "stateMutability": "nonpayable",
      "type": "function"
    },
    {
      "inputs": [],
      "name": "paused",
      "outputs": [
        {
          "internalType": "bool",
          "name": "",
          "type": "bool"
        }
      ],
      "stateMutability": "view",
      "type": "function"
    },
    {
      "inputs": [],
      "name": "renounceOwnership",
      "outputs": [],
      "stateMutability": "nonpayable",
      "type": "function"
    },
    {
      "inputs": [
        {
          "internalType": "address",
          "name": "_activityManager",
          "type": "address"
        }
      ],
      "name": "setActivityManager",
      "outputs": [],
      "stateMutability": "nonpayable",
      "type": "function"
    },
    {
      "inputs": [
        {
          "internalType": "bytes32",
          "name": "id",
          "type": "bytes32"
        },
        {
          "internalType": "address",
          "name": "managementAddress",
          "type": "address"
        }
      ],
      "name": "setManagementAddress",
      "outputs": [],
      "stateMutability": "nonpayable",
      "type": "function"
    },
    {
      "inputs": [
        {
          "internalType": "address",
          "name": "newOwner",
          "type": "address"
        }
      ],
      "name": "transferOwnership",
      "outputs": [],
      "stateMutability": "nonpayable",
      "type": "function"
    },
    {
      "inputs": [],
      "name": "unpauseContract",
      "outputs": [],
      "stateMutability": "nonpayable",
      "type": "function"
    }
  ],
  "bytecode": "0x6080604052348015600f57600080fd5b506110978061001f6000396000f3fe608060405234801561001057600080fd5b50600436106100a95760003560e01c80638e1bde95116100715780638e1bde951461011a578063a03379cd1461014a578063b33712c514610168578063c354c72614610172578063dc5034c21461018e578063f2fde38b146101aa576100a9565b8063439766ce146100ae578063485cc955146100b85780635c975abb146100d4578063715018a6146100f25780638da5cb5b146100fc575b600080fd5b6100b66101c6565b005b6100d260048036038101906100cd9190610d28565b6101d8565b005b6100dc610496565b6040516100e99190610d83565b60405180910390f35b6100fa6104a5565b005b6101046104b9565b6040516101119190610dad565b60405180910390f35b610134600480360381019061012f9190610dfe565b6104c8565b6040516101419190610dad565b60405180910390f35b610152610579565b60405161015f9190610dad565b60405180910390f35b6101706105a2565b005b61018c60048036038101906101879190610e2b565b6105b4565b005b6101a860048036038101906101a39190610e58565b6105ff565b005b6101c460048036038101906101bf9190610e2b565b610704565b005b6101ce61078a565b6101d6610811565b565b60006101e2610883565b905060008160000160089054906101000a900460ff1615905060008260000160009054906101000a900467ffffffffffffffff1690506000808267ffffffffffffffff161480156102305750825b9050600060018367ffffffffffffffff16148015610265575060003073ffffffffffffffffffffffffffffffffffffffff163b145b905081158015610273575080155b156102aa576040517ff92ee8a900000000000000000000000000000000000000000000000000000000815260040160405180910390fd5b60018560000160006101000a81548167ffffffffffffffff021916908367ffffffffffffffff16021790555083156102fa5760018560000160086101000a81548160ff0219169083151502179055505b600073ffffffffffffffffffffffffffffffffffffffff168773ffffffffffffffffffffffffffffffffffffffff1603610369576040517f08c379a000000000000000000000000000000000000000000000000000000000815260040161036090610ef5565b60405180910390fd5b600073ffffffffffffffffffffffffffffffffffffffff168673ffffffffffffffffffffffffffffffffffffffff16036103d8576040517f08c379a00000000000000000000000000000000000000000000000000000000081526004016103cf90610ef5565b60405180910390fd5b6103e1876108ab565b6103e96108bf565b6103f16108d1565b856000806101000a81548173ffffffffffffffffffffffffffffffffffffffff021916908373ffffffffffffffffffffffffffffffffffffffff160217905550831561048d5760008560000160086101000a81548160ff0219169083151502179055507fc7f505b2f371ae2175ee4913f4499e1f2633a7b5936321eed1cdaeb6115181d260016040516104849190610f6e565b60405180910390a15b50505050505050565b60006104a06108e3565b905090565b6104ad61078a565b6104b76000610908565b565b60006104c36109df565b905090565b6000806001600084815260200190815260200160002060009054906101000a900473ffffffffffffffffffffffffffffffffffffffff169050600073ffffffffffffffffffffffffffffffffffffffff168173ffffffffffffffffffffffffffffffffffffffff1603610570576040517f08c379a000000000000000000000000000000000000000000000000000000000815260040161056790610fd5565b60405180910390fd5b80915050919050565b60008060009054906101000a900473ffffffffffffffffffffffffffffffffffffffff16905090565b6105aa61078a565b6105b2610a17565b565b6105bc61078a565b806000806101000a81548173ffffffffffffffffffffffffffffffffffffffff021916908373ffffffffffffffffffffffffffffffffffffffff16021790555050565b61060761078a565b600073ffffffffffffffffffffffffffffffffffffffff168173ffffffffffffffffffffffffffffffffffffffff1603610676576040517f08c379a000000000000000000000000000000000000000000000000000000000815260040161066d90611041565b60405180910390fd5b806001600084815260200190815260200160002060006101000a81548173ffffffffffffffffffffffffffffffffffffffff021916908373ffffffffffffffffffffffffffffffffffffffff160217905550817feca37c581f17d067265971ed5c2a5afc1bbc1eba94197fe299f55f96a415c9ac826040516106f89190610dad565b60405180910390a25050565b61070c61078a565b600073ffffffffffffffffffffffffffffffffffffffff168173ffffffffffffffffffffffffffffffffffffffff160361077e5760006040517f1e4fbdf70000000000000000000000000000000000000000000000000000000081526004016107759190610dad565b60405180910390fd5b61078781610908565b50565b610792610a89565b73ffffffffffffffffffffffffffffffffffffffff166107b06104b9565b73ffffffffffffffffffffffffffffffffffffffff161461080f576107d3610a89565b6040517f118cdaa70000000000000000000000000000000000000000000000000000000081526004016108069190610dad565b60405180910390fd5b565b610819610a91565b6000610823610ad2565b905060018160000160006101000a81548160ff0219169083151502179055507f62e78cea01bee320cd4e420270b5ea74000d11b0c9f74754ebdbfc544b05a25861086b610a89565b6040516108789190610dad565b60405180910390a150565b60007ff0c57e16840df040f15088dc2f81fe391c3923bec73e23a9662efc9c229c6a00905090565b6108b3610afa565b6108bc81610b3a565b50565b6108c7610afa565b6108cf610bc0565b565b6108d9610afa565b6108e1610bf4565b565b6000806108ee610ad2565b90508060000160009054906101000a900460ff1691505090565b6000610912610c15565b905060008160000160009054906101000a900473ffffffffffffffffffffffffffffffffffffffff169050828260000160006101000a81548173ffffffffffffffffffffffffffffffffffffffff021916908373ffffffffffffffffffffffffffffffffffffffff1602179055508273ffffffffffffffffffffffffffffffffffffffff168173ffffffffffffffffffffffffffffffffffffffff167f8be0079c531659141344cd1fd0a4f28419497f9722a3daafe3b4186f6b6457e060405160405180910390a3505050565b6000806109ea610c15565b90508060000160009054906101000a900473ffffffffffffffffffffffffffffffffffffffff1691505090565b610a1f610c3d565b6000610a29610ad2565b905060008160000160006101000a81548160ff0219169083151502179055507f5db9ee0a495bf2e6ff9c91a7834c1ba4fdd244a5e8aa4e537bd38aeae4b073aa610a71610a89565b604051610a7e9190610dad565b60405180910390a150565b600033905090565b610a99610496565b15610ad0576040517fd93c066500000000000000000000000000000000000000000000000000000000815260040160405180910390fd5b565b60007fcd5ed15c6e187e77e9aee88184c21f4f2182ab5827cb3b7e07fbedcd63f03300905090565b610b02610c7d565b610b38576040517fd7e6bcf800000000000000000000000000000000000000000000000000000000815260040160405180910390fd5b565b610b42610afa565b600073ffffffffffffffffffffffffffffffffffffffff168173ffffffffffffffffffffffffffffffffffffffff1603610bb45760006040517f1e4fbdf7000000000000000000000000000000000000000000000000000000008152600401610bab9190610dad565b60405180910390fd5b610bbd81610908565b50565b610bc8610afa565b6000610bd2610ad2565b905060008160000160006101000a81548160ff02191690831515021790555050565b610bfc610afa565b6000610c06610c9d565b90506001816000018190555050565b60007f9016d09d72d40fdae2fd8ceac6b6234c7706214fd39c1cd1e609a0528c199300905090565b610c45610496565b610c7b576040517f8dfc202b00000000000000000000000000000000000000000000000000000000815260040160405180910390fd5b565b6000610c87610883565b60000160089054906101000a900460ff16905090565b60007f9b779b17422d0df92223018b32b4d1fa46e071723d6817e2486d003becc55f00905090565b600080fd5b600073ffffffffffffffffffffffffffffffffffffffff82169050919050565b6000610cf582610cca565b9050919050565b610d0581610cea565b8114610d1057600080fd5b50565b600081359050610d2281610cfc565b92915050565b60008060408385031215610d3f57610d3e610cc5565b5b6000610d4d85828601610d13565b9250506020610d5e85828601610d13565b9150509250929050565b60008115159050919050565b610d7d81610d68565b82525050565b6000602082019050610d986000830184610d74565b92915050565b610da781610cea565b82525050565b6000602082019050610dc26000830184610d9e565b92915050565b6000819050919050565b610ddb81610dc8565b8114610de657600080fd5b50565b600081359050610df881610dd2565b92915050565b600060208284031215610e1457610e13610cc5565b5b6000610e2284828501610de9565b91505092915050565b600060208284031215610e4157610e40610cc5565b5b6000610e4f84828501610d13565b91505092915050565b60008060408385031215610e6f57610e6e610cc5565b5b6000610e7d85828601610de9565b9250506020610e8e85828601610d13565b9150509250929050565b600082825260208201905092915050565b7f496e76616c696420416464726573730000000000000000000000000000000000600082015250565b6000610edf600f83610e98565b9150610eea82610ea9565b602082019050919050565b60006020820190508181036000830152610f0e81610ed2565b9050919050565b6000819050919050565b600067ffffffffffffffff82169050919050565b6000819050919050565b6000610f58610f53610f4e84610f15565b610f33565b610f1f565b9050919050565b610f6881610f3d565b82525050565b6000602082019050610f836000830184610f5f565b92915050565b7f436f6e7472616374206e6f742073657400000000000000000000000000000000600082015250565b6000610fbf601083610e98565b9150610fca82610f89565b602082019050919050565b60006020820190508181036000830152610fee81610fb2565b9050919050565b7f496e76616c696420616464726573730000000000000000000000000000000000600082015250565b600061102b600f83610e98565b915061103682610ff5565b602082019050919050565b6000602082019050818103600083015261105a8161101e565b905091905056fea264697066735822122097368f089f45fc79fa6b7fa1b92ac51bc319ed91d874fe94dd971979735f4dd464736f6c634300081c0033",
  "linkReferences": {},
  "deployedLinkReferences": {}
}