{
  "_format": "hh-sol-artifact-1",
  "contractName": "SunnySideActivityFactory",
  "sourceName": "contracts/factory/SunnySideActivityFactory.sol",
  "abi": [
    {
      "inputs": [
        {
          "internalType": "address",
          "name": "initialImplementation",
          "type": "address"
        }
      ],
      "stateMutability": "nonpayable",
      "type": "constructor"
    },
    {
      "inputs": [
        {
          "internalType": "address",
          "name": "owner",
          "type": "address"
        }
      ],
      "name": "OwnableInvalidOwner",
      "type": "error"
    },
    {
      "inputs": [
        {
          "internalType": "address",
          "name": "account",
          "type": "address"
        }
      ],
      "name": "OwnableUnauthorizedAccount",
      "type": "error"
    },
    {
      "anonymous": false,
      "inputs": [
        {
          "indexed": true,
          "internalType": "address",
          "name": "creator",
          "type": "address"
        },
        {
          "indexed": true,
          "internalType": "address",
          "name": "activityContract",
          "type": "address"
        }
      ],
      "name": "ActivityContractCreated",
      "type": "event"
    },
    {
      "anonymous": false,
      "inputs": [
        {
          "indexed": true,
          "internalType": "address",
          "name": "newImplementation",
          "type": "address"
        }
      ],
      "name": "ImplementationUpgraded",
      "type": "event"
    },
    {
      "anonymous": false,
      "inputs": [
        {
          "indexed": true,
          "internalType": "address",
          "name": "previousOwner",
          "type": "address"
        },
        {
          "indexed": true,
          "internalType": "address",
          "name": "newOwner",
          "type": "address"
        }
      ],
      "name": "OwnershipTransferred",
      "type": "event"
    },
    {
      "inputs": [
        {
          "internalType": "uint256",
          "name": "",
          "type": "uint256"
        }
      ],
      "name": "activityContracts",
      "outputs": [
        {
          "internalType": "address",
          "name": "",
          "type": "address"
        }
      ],
      "stateMutability": "view",
      "type": "function"
    },
    {
      "inputs": [],
      "name": "beacon",
      "outputs": [
        {
          "internalType": "contract UpgradeableBeacon",
          "name": "",
          "type": "address"
        }
      ],
      "stateMutability": "view",
      "type": "function"
    },
    {
      "inputs": [
        {
          "internalType": "address",
          "name": "owner",
          "type": "address"
        }
      ],
      "name": "createActivityContract",
      "outputs": [
        {
          "internalType": "address",
          "name": "",
          "type": "address"
        }
      ],
      "stateMutability": "nonpayable",
      "type": "function"
    },
    {
      "inputs": [],
      "name": "getActivityContracts",
      "outputs": [
        {
          "internalType": "address[]",
          "name": "",
          "type": "address[]"
        }
      ],
      "stateMutability": "view",
      "type": "function"
    },
    {
      "inputs": [],
      "name": "owner",
      "outputs": [
        {
          "internalType": "address",
          "name": "",
          "type": "address"
        }
      ],
      "stateMutability": "view",
      "type": "function"
    },
    {
      "inputs": [],
      "name": "renounceOwnership",
      "outputs": [],
      "stateMutability": "nonpayable",
      "type": "function"
    },
    {
      "inputs": [
        {
          "internalType": "address",
          "name": "newOwner",
          "type": "address"
        }
      ],
      "name": "transferOwnership",
      "outputs": [],
      "stateMutability": "nonpayable",
      "type": "function"
    },
    {
      "inputs": [
        {
          "internalType": "address",
          "name": "newImplementation",
          "type": "address"
        }
      ],
      "name": "upgradeImplementation",
      "outputs": [],
      "stateMutability": "nonpayable",
      "type": "function"
    }
  ],
  "bytecode": "0x608060405234801561001057600080fd5b50604051611f22380380611f2283398181016040528101906100329190610265565b33600073ffffffffffffffffffffffffffffffffffffffff168173ffffffffffffffffffffffffffffffffffffffff16036100a55760006040517f1e4fbdf700000000000000000000000000000000000000000000000000000000815260040161009c91906102a1565b60405180910390fd5b6100b48161013160201b60201c565b5080336040516100c3906101f5565b6100ce9291906102bc565b604051809103906000f0801580156100ea573d6000803e3d6000fd5b50600160006101000a81548173ffffffffffffffffffffffffffffffffffffffff021916908373ffffffffffffffffffffffffffffffffffffffff160217905550506102e5565b60008060009054906101000a900473ffffffffffffffffffffffffffffffffffffffff169050816000806101000a81548173ffffffffffffffffffffffffffffffffffffffff021916908373ffffffffffffffffffffffffffffffffffffffff1602179055508173ffffffffffffffffffffffffffffffffffffffff168173ffffffffffffffffffffffffffffffffffffffff167f8be0079c531659141344cd1fd0a4f28419497f9722a3daafe3b4186f6b6457e060405160405180910390a35050565b61084f806116d383390190565b600080fd5b600073ffffffffffffffffffffffffffffffffffffffff82169050919050565b600061023282610207565b9050919050565b61024281610227565b811461024d57600080fd5b50565b60008151905061025f81610239565b92915050565b60006020828403121561027b5761027a610202565b5b600061028984828501610250565b91505092915050565b61029b81610227565b82525050565b60006020820190506102b66000830184610292565b92915050565b60006040820190506102d16000830185610292565b6102de6020830184610292565b9392505050565b6113df806102f46000396000f3fe608060405234801561001057600080fd5b50600436106100885760003560e01c806383f94db71161005b57806383f94db7146101035780638da5cb5b1461011f578063cf4993e51461013d578063f2fde38b1461016d57610088565b80632a14ccc91461008d57806345b45f68146100bd57806359659e90146100db578063715018a6146100f9575b600080fd5b6100a760048036038101906100a2919061074d565b610189565b6040516100b491906107bb565b60405180910390f35b6100c56101c8565b6040516100d29190610894565b60405180910390f35b6100e3610256565b6040516100f09190610915565b60405180910390f35b61010161027c565b005b61011d6004803603810190610118919061095c565b610290565b005b61012761036b565b60405161013491906107bb565b60405180910390f35b6101576004803603810190610152919061095c565b610394565b60405161016491906107bb565b60405180910390f35b6101876004803603810190610182919061095c565b61052c565b005b6002818154811061019957600080fd5b906000526020600020016000915054906101000a900473ffffffffffffffffffffffffffffffffffffffff1681565b6060600280548060200260200160405190810160405280929190818152602001828054801561024c57602002820191906000526020600020905b8160009054906101000a900473ffffffffffffffffffffffffffffffffffffffff1673ffffffffffffffffffffffffffffffffffffffff1681526020019060010190808311610202575b5050505050905090565b600160009054906101000a900473ffffffffffffffffffffffffffffffffffffffff1681565b6102846105b2565b61028e6000610639565b565b6102986105b2565b600160009054906101000a900473ffffffffffffffffffffffffffffffffffffffff1673ffffffffffffffffffffffffffffffffffffffff16633659cfe6826040518263ffffffff1660e01b81526004016102f391906107bb565b600060405180830381600087803b15801561030d57600080fd5b505af1158015610321573d6000803e3d6000fd5b505050508073ffffffffffffffffffffffffffffffffffffffff167f51ea6ffdc9909d5ca341259f7221902e0676585d833e2bb21fa923c85e86288660405160405180910390a250565b60008060009054906101000a900473ffffffffffffffffffffffffffffffffffffffff16905090565b600080600160009054906101000a900473ffffffffffffffffffffffffffffffffffffffff1663c4d66de860e01b846040516024016103d391906107bb565b604051602081830303815290604052907bffffffffffffffffffffffffffffffffffffffffffffffffffffffff19166020820180517bffffffffffffffffffffffffffffffffffffffffffffffffffffffff838183161783525050505060405161043c90610705565b610447929190610a19565b604051809103906000f080158015610463573d6000803e3d6000fd5b5090506002819080600181540180825580915050600190039060005260206000200160009091909190916101000a81548173ffffffffffffffffffffffffffffffffffffffff021916908373ffffffffffffffffffffffffffffffffffffffff1602179055508073ffffffffffffffffffffffffffffffffffffffff163373ffffffffffffffffffffffffffffffffffffffff167fd80edd9e7f056bd66e87974098eb3d883105fce14c5039969606551fc0efa66c60405160405180910390a380915050919050565b6105346105b2565b600073ffffffffffffffffffffffffffffffffffffffff168173ffffffffffffffffffffffffffffffffffffffff16036105a65760006040517f1e4fbdf700000000000000000000000000000000000000000000000000000000815260040161059d91906107bb565b60405180910390fd5b6105af81610639565b50565b6105ba6106fd565b73ffffffffffffffffffffffffffffffffffffffff166105d861036b565b73ffffffffffffffffffffffffffffffffffffffff1614610637576105fb6106fd565b6040517f118cdaa700000000000000000000000000000000000000000000000000000000815260040161062e91906107bb565b60405180910390fd5b565b60008060009054906101000a900473ffffffffffffffffffffffffffffffffffffffff169050816000806101000a81548173ffffffffffffffffffffffffffffffffffffffff021916908373ffffffffffffffffffffffffffffffffffffffff1602179055508173ffffffffffffffffffffffffffffffffffffffff168173ffffffffffffffffffffffffffffffffffffffff167f8be0079c531659141344cd1fd0a4f28419497f9722a3daafe3b4186f6b6457e060405160405180910390a35050565b600033905090565b61096080610a4a83390190565b600080fd5b6000819050919050565b61072a81610717565b811461073557600080fd5b50565b60008135905061074781610721565b92915050565b60006020828403121561076357610762610712565b5b600061077184828501610738565b91505092915050565b600073ffffffffffffffffffffffffffffffffffffffff82169050919050565b60006107a58261077a565b9050919050565b6107b58161079a565b82525050565b60006020820190506107d060008301846107ac565b92915050565b600081519050919050565b600082825260208201905092915050565b6000819050602082019050919050565b61080b8161079a565b82525050565b600061081d8383610802565b60208301905092915050565b6000602082019050919050565b6000610841826107d6565b61084b81856107e1565b9350610856836107f2565b8060005b8381101561088757815161086e8882610811565b975061087983610829565b92505060018101905061085a565b5085935050505092915050565b600060208201905081810360008301526108ae8184610836565b905092915050565b6000819050919050565b60006108db6108d66108d18461077a565b6108b6565b61077a565b9050919050565b60006108ed826108c0565b9050919050565b60006108ff826108e2565b9050919050565b61090f816108f4565b82525050565b600060208201905061092a6000830184610906565b92915050565b6109398161079a565b811461094457600080fd5b50565b60008135905061095681610930565b92915050565b60006020828403121561097257610971610712565b5b600061098084828501610947565b91505092915050565b600081519050919050565b600082825260208201905092915050565b60005b838110156109c35780820151818401526020810190506109a8565b60008484015250505050565b6000601f19601f8301169050919050565b60006109eb82610989565b6109f58185610994565b9350610a058185602086016109a5565b610a0e816109cf565b840191505092915050565b6000604082019050610a2e60008301856107ac565b8181036020830152610a4081846109e0565b9050939250505056fe60a060405260405161096038038061096083398181016040528101906100259190610684565b610035828261007060201b60201c565b8173ffffffffffffffffffffffffffffffffffffffff1660808173ffffffffffffffffffffffffffffffffffffffff16815250505050610795565b61007f8261016360201b60201c565b8173ffffffffffffffffffffffffffffffffffffffff167f1cf3b03a6cf19fa2baba4df148e9dcabedea7f8a5c07840e207e5c089be95d3e60405160405180910390a26000815111156101505761014a8273ffffffffffffffffffffffffffffffffffffffff16635c60da1b6040518163ffffffff1660e01b8152600401602060405180830381865afa15801561011a573d6000803e3d6000fd5b505050506040513d601f19601f8201168201806040525081019061013e91906106e0565b8261030660201b60201c565b5061015f565b61015e61039060201b60201c565b5b5050565b60008173ffffffffffffffffffffffffffffffffffffffff163b036101bf57806040517f64ced0ec0000000000000000000000000000000000000000000000000000000081526004016101b6919061071c565b60405180910390fd5b806101f27fa3f0ad74e5423aebfd80d3ef4346578335a9a72aeaee59ff6cb3582b35133d5060001b6103cd60201b60201c565b60000160006101000a81548173ffffffffffffffffffffffffffffffffffffffff021916908373ffffffffffffffffffffffffffffffffffffffff16021790555060008173ffffffffffffffffffffffffffffffffffffffff16635c60da1b6040518163ffffffff1660e01b8152600401602060405180830381865afa158015610280573d6000803e3d6000fd5b505050506040513d601f19601f820116820180604052508101906102a491906106e0565b905060008173ffffffffffffffffffffffffffffffffffffffff163b0361030257806040517f4c9c8ce30000000000000000000000000000000000000000000000000000000081526004016102f9919061071c565b60405180910390fd5b5050565b60606000808473ffffffffffffffffffffffffffffffffffffffff1684604051610330919061077e565b600060405180830381855af49150503d806000811461036b576040519150601f19603f3d011682016040523d82523d6000602084013e610370565b606091505b50915091506103868583836103d760201b60201c565b9250505092915050565b60003411156103cb576040517fb398979f00000000000000000000000000000000000000000000000000000000815260040160405180910390fd5b565b6000819050919050565b6060826103f2576103ed8261046c60201b60201c565b610464565b6000825114801561041a575060008473ffffffffffffffffffffffffffffffffffffffff163b145b1561045c57836040517f9996b315000000000000000000000000000000000000000000000000000000008152600401610453919061071c565b60405180910390fd5b819050610465565b5b9392505050565b60008151111561047f5780518082602001fd5b6040517fd6bda27500000000000000000000000000000000000000000000000000000000815260040160405180910390fd5b6000604051905090565b600080fd5b600080fd5b600073ffffffffffffffffffffffffffffffffffffffff82169050919050565b60006104f0826104c5565b9050919050565b610500816104e5565b811461050b57600080fd5b50565b60008151905061051d816104f7565b92915050565b600080fd5b600080fd5b6000601f19601f8301169050919050565b7f4e487b7100000000000000000000000000000000000000000000000000000000600052604160045260246000fd5b6105768261052d565b810181811067ffffffffffffffff821117156105955761059461053e565b5b80604052505050565b60006105a86104b1565b90506105b4828261056d565b919050565b600067ffffffffffffffff8211156105d4576105d361053e565b5b6105dd8261052d565b9050602081019050919050565b60005b838110156106085780820151818401526020810190506105ed565b60008484015250505050565b6000610627610622846105b9565b61059e565b90508281526020810184848401111561064357610642610528565b5b61064e8482856105ea565b509392505050565b600082601f83011261066b5761066a610523565b5b815161067b848260208601610614565b91505092915050565b6000806040838503121561069b5761069a6104bb565b5b60006106a98582860161050e565b925050602083015167ffffffffffffffff8111156106ca576106c96104c0565b5b6106d685828601610656565b9150509250929050565b6000602082840312156106f6576106f56104bb565b5b60006107048482850161050e565b91505092915050565b610716816104e5565b82525050565b6000602082019050610731600083018461070d565b92915050565b600081519050919050565b600081905092915050565b600061075882610737565b6107628185610742565b93506107728185602086016105ea565b80840191505092915050565b600061078a828461074d565b915081905092915050565b6080516101b16107af600039600060c701526101b16000f3fe608060405261000c61000e565b005b61001e610019610020565b61009d565b565b600061002a6100c3565b73ffffffffffffffffffffffffffffffffffffffff16635c60da1b6040518163ffffffff1660e01b8152600401602060405180830381865afa158015610074573d6000803e3d6000fd5b505050506040513d601f19601f82011682018060405250810190610098919061014e565b905090565b3660008037600080366000845af43d6000803e80600081146100be573d6000f35b3d6000fd5b60007f0000000000000000000000000000000000000000000000000000000000000000905090565b600080fd5b600073ffffffffffffffffffffffffffffffffffffffff82169050919050565b600061011b826100f0565b9050919050565b61012b81610110565b811461013657600080fd5b50565b60008151905061014881610122565b92915050565b600060208284031215610164576101636100eb565b5b600061017284828501610139565b9150509291505056fea2646970667358221220971c44775f8d7c9ebe6f819c9085c5e0a7cc163479e6fb0637ad9892aef5200164736f6c634300081c0033a2646970667358221220c3fab20391e73921add9d6d3128b93f0f4b18654b880830d1f1412ceca6f13ba64736f6c634300081c0033608060405234801561001057600080fd5b5060405161084f38038061084f833981810160405281019061003291906102d5565b80600073ffffffffffffffffffffffffffffffffffffffff168173ffffffffffffffffffffffffffffffffffffffff16036100a55760006040517f1e4fbdf700000000000000000000000000000000000000000000000000000000815260040161009c9190610324565b60405180910390fd5b6100b4816100cb60201b60201c565b506100c48261018f60201b60201c565b505061033f565b60008060009054906101000a900473ffffffffffffffffffffffffffffffffffffffff169050816000806101000a81548173ffffffffffffffffffffffffffffffffffffffff021916908373ffffffffffffffffffffffffffffffffffffffff1602179055508173ffffffffffffffffffffffffffffffffffffffff168173ffffffffffffffffffffffffffffffffffffffff167f8be0079c531659141344cd1fd0a4f28419497f9722a3daafe3b4186f6b6457e060405160405180910390a35050565b60008173ffffffffffffffffffffffffffffffffffffffff163b036101eb57806040517f847ac5640000000000000000000000000000000000000000000000000000000081526004016101e29190610324565b60405180910390fd5b80600160006101000a81548173ffffffffffffffffffffffffffffffffffffffff021916908373ffffffffffffffffffffffffffffffffffffffff1602179055508073ffffffffffffffffffffffffffffffffffffffff167fbc7cd75a20ee27fd9adebab32041f755214dbc6bffa90cc0225b39da2e5c2d3b60405160405180910390a250565b600080fd5b600073ffffffffffffffffffffffffffffffffffffffff82169050919050565b60006102a282610277565b9050919050565b6102b281610297565b81146102bd57600080fd5b50565b6000815190506102cf816102a9565b92915050565b600080604083850312156102ec576102eb610272565b5b60006102fa858286016102c0565b925050602061030b858286016102c0565b9150509250929050565b61031e81610297565b82525050565b60006020820190506103396000830184610315565b92915050565b6105018061034e6000396000f3fe608060405234801561001057600080fd5b50600436106100575760003560e01c80633659cfe61461005c5780635c60da1b14610078578063715018a6146100965780638da5cb5b146100a0578063f2fde38b146100be575b600080fd5b61007660048036038101906100719190610474565b6100da565b005b6100806100ee565b60405161008d91906104b0565b60405180910390f35b61009e610118565b005b6100a861012c565b6040516100b591906104b0565b60405180910390f35b6100d860048036038101906100d39190610474565b610155565b005b6100e26101db565b6100eb81610262565b50565b6000600160009054906101000a900473ffffffffffffffffffffffffffffffffffffffff16905090565b6101206101db565b61012a6000610345565b565b60008060009054906101000a900473ffffffffffffffffffffffffffffffffffffffff16905090565b61015d6101db565b600073ffffffffffffffffffffffffffffffffffffffff168173ffffffffffffffffffffffffffffffffffffffff16036101cf5760006040517f1e4fbdf70000000000000000000000000000000000000000000000000000000081526004016101c691906104b0565b60405180910390fd5b6101d881610345565b50565b6101e3610409565b73ffffffffffffffffffffffffffffffffffffffff1661020161012c565b73ffffffffffffffffffffffffffffffffffffffff161461026057610224610409565b6040517f118cdaa700000000000000000000000000000000000000000000000000000000815260040161025791906104b0565b60405180910390fd5b565b60008173ffffffffffffffffffffffffffffffffffffffff163b036102be57806040517f847ac5640000000000000000000000000000000000000000000000000000000081526004016102b591906104b0565b60405180910390fd5b80600160006101000a81548173ffffffffffffffffffffffffffffffffffffffff021916908373ffffffffffffffffffffffffffffffffffffffff1602179055508073ffffffffffffffffffffffffffffffffffffffff167fbc7cd75a20ee27fd9adebab32041f755214dbc6bffa90cc0225b39da2e5c2d3b60405160405180910390a250565b60008060009054906101000a900473ffffffffffffffffffffffffffffffffffffffff169050816000806101000a81548173ffffffffffffffffffffffffffffffffffffffff021916908373ffffffffffffffffffffffffffffffffffffffff1602179055508173ffffffffffffffffffffffffffffffffffffffff168173ffffffffffffffffffffffffffffffffffffffff167f8be0079c531659141344cd1fd0a4f28419497f9722a3daafe3b4186f6b6457e060405160405180910390a35050565b600033905090565b600080fd5b600073ffffffffffffffffffffffffffffffffffffffff82169050919050565b600061044182610416565b9050919050565b61045181610436565b811461045c57600080fd5b50565b60008135905061046e81610448565b92915050565b60006020828403121561048a57610489610411565b5b60006104988482850161045f565b91505092915050565b6104aa81610436565b82525050565b60006020820190506104c560008301846104a1565b9291505056fea2646970667358221220a0959254b32712178b874949153c671841681d9b8c0408e05378dca6e6d5c26664736f6c634300081c0033",
  "linkReferences": {},
  "deployedLinkReferences": {}
}