{
  "_format": "hh-sol-artifact-1",
  "contractName": "SunnySideActivity",
  "sourceName": "contracts/SunnySideActivity.sol",
  "abi": [
    {
      "inputs": [],
      "stateMutability": "nonpayable",
      "type": "constructor"
    },
    {
      "inputs": [],
      "name": "AlreadyLoggedInToday",
      "type": "error"
    },
    {
      "inputs": [],
      "name": "AlreadyReferred",
      "type": "error"
    },
    {
      "inputs": [],
      "name": "CannotReferSelf",
      "type": "error"
    },
    {
      "inputs": [],
      "name": "CooldownActive",
      "type": "error"
    },
    {
      "inputs": [],
      "name": "EnforcedPause",
      "type": "error"
    },
    {
      "inputs": [],
      "name": "ExpectedPause",
      "type": "error"
    },
    {
      "inputs": [],
      "name": "InvalidInitialization",
      "type": "error"
    },
    {
      "inputs": [],
      "name": "NotInitializing",
      "type": "error"
    },
    {
      "inputs": [
        {
          "internalType": "address",
          "name": "owner",
          "type": "address"
        }
      ],
      "name": "OwnableInvalidOwner",
      "type": "error"
    },
    {
      "inputs": [
        {
          "internalType": "address",
          "name": "account",
          "type": "address"
        }
      ],
      "name": "OwnableUnauthorizedAccount",
      "type": "error"
    },
    {
      "inputs": [],
      "name": "ReentrancyGuardReentrantCall",
      "type": "error"
    },
    {
      "inputs": [],
      "name": "ReferrerNotWhitelisted",
      "type": "error"
    },
    {
      "inputs": [],
      "name": "UserAlreadyWhitelisted",
      "type": "error"
    },
    {
      "inputs": [],
      "name": "UserNotWhitelisted",
      "type": "error"
    },
    {
      "anonymous": false,
      "inputs": [
        {
          "indexed": true,
          "internalType": "address",
          "name": "user",
          "type": "address"
        },
        {
          "indexed": false,
          "internalType": "uint256",
          "name": "pointsEarned",
          "type": "uint256"
        }
      ],
      "name": "ChestOpened",
      "type": "event"
    },
    {
      "anonymous": false,
      "inputs": [
        {
          "indexed": true,
          "internalType": "address",
          "name": "user",
          "type": "address"
        },
        {
          "indexed": false,
          "internalType": "uint256",
          "name": "pointsEarned",
          "type": "uint256"
        }
      ],
      "name": "DailyLogin",
      "type": "event"
    },
    {
      "anonymous": false,
      "inputs": [
        {
          "indexed": true,
          "internalType": "address",
          "name": "user",
          "type": "address"
        },
        {
          "indexed": true,
          "internalType": "string",
          "name": "fishType",
          "type": "string"
        },
        {
          "indexed": false,
          "internalType": "uint256",
          "name": "pointsEarned",
          "type": "uint256"
        }
      ],
      "name": "FishCatched",
      "type": "event"
    },
    {
      "anonymous": false,
      "inputs": [
        {
          "indexed": false,
          "internalType": "uint64",
          "name": "version",
          "type": "uint64"
        }
      ],
      "name": "Initialized",
      "type": "event"
    },
    {
      "anonymous": false,
      "inputs": [
        {
          "indexed": true,
          "internalType": "address",
          "name": "previousOwner",
          "type": "address"
        },
        {
          "indexed": true,
          "internalType": "address",
          "name": "newOwner",
          "type": "address"
        }
      ],
      "name": "OwnershipTransferred",
      "type": "event"
    },
    {
      "anonymous": false,
      "inputs": [
        {
          "indexed": false,
          "internalType": "address",
          "name": "account",
          "type": "address"
        }
      ],
      "name": "Paused",
      "type": "event"
    },
    {
      "anonymous": false,
      "inputs": [
        {
          "indexed": true,
          "internalType": "address",
          "name": "user",
          "type": "address"
        },
        {
          "indexed": true,
          "internalType": "string",
          "name": "activity",
          "type": "string"
        },
        {
          "indexed": false,
          "internalType": "uint256",
          "name": "points",
          "type": "uint256"
        }
      ],
      "name": "PointsAdded",
      "type": "event"
    },
    {
      "anonymous": false,
      "inputs": [
        {
          "indexed": true,
          "internalType": "address",
          "name": "referrer",
          "type": "address"
        },
        {
          "indexed": true,
          "internalType": "address",
          "name": "referred",
          "type": "address"
        }
      ],
      "name": "ReferralCompleted",
      "type": "event"
    },
    {
      "anonymous": false,
      "inputs": [
        {
          "indexed": true,
          "internalType": "address",
          "name": "newSigner",
          "type": "address"
        }
      ],
      "name": "SignerUpdated",
      "type": "event"
    },
    {
      "anonymous": false,
      "inputs": [
        {
          "indexed": false,
          "internalType": "address",
          "name": "account",
          "type": "address"
        }
      ],
      "name": "Unpaused",
      "type": "event"
    },
    {
      "anonymous": false,
      "inputs": [
        {
          "indexed": true,
          "internalType": "address",
          "name": "user",
          "type": "address"
        },
        {
          "indexed": false,
          "internalType": "bool",
          "name": "whitelisted",
          "type": "bool"
        }
      ],
      "name": "WhitelistAdded",
      "type": "event"
    },
    {
      "inputs": [],
      "name": "CHEST_COOLDOWN",
      "outputs": [
        {
          "internalType": "uint256",
          "name": "",
          "type": "uint256"
        }
      ],
      "stateMutability": "view",
      "type": "function"
    },
    {
      "inputs": [],
      "name": "DAILY_LOGIN_POINTS",
      "outputs": [
        {
          "internalType": "uint256",
          "name": "",
          "type": "uint256"
        }
      ],
      "stateMutability": "view",
      "type": "function"
    },
    {
      "inputs": [],
      "name": "REFERRED_REWARD_POINTS",
      "outputs": [
        {
          "internalType": "uint256",
          "name": "",
          "type": "uint256"
        }
      ],
      "stateMutability": "view",
      "type": "function"
    },
    {
      "inputs": [],
      "name": "REFERRER_REWARD_POINTS",
      "outputs": [
        {
          "internalType": "uint256",
          "name": "",
          "type": "uint256"
        }
      ],
      "stateMutability": "view",
      "type": "function"
    },
    {
      "inputs": [
        {
          "internalType": "uint256",
          "name": "",
          "type": "uint256"
        }
      ],
      "name": "activityNames",
      "outputs": [
        {
          "internalType": "string",
          "name": "",
          "type": "string"
        }
      ],
      "stateMutability": "view",
      "type": "function"
    },
    {
      "inputs": [
        {
          "internalType": "string",
          "name": "fishName",
          "type": "string"
        },
        {
          "internalType": "uint256",
          "name": "rate",
          "type": "uint256"
        },
        {
          "internalType": "uint256",
          "name": "rewardPoint",
          "type": "uint256"
        }
      ],
      "name": "addListFish",
      "outputs": [],
      "stateMutability": "nonpayable",
      "type": "function"
    },
    {
      "inputs": [
        {
          "internalType": "address",
          "name": "user",
          "type": "address"
        },
        {
          "internalType": "enum SunnySideActivity.Activity",
          "name": "activity",
          "type": "uint8"
        },
        {
          "internalType": "uint256",
          "name": "points",
          "type": "uint256"
        }
      ],
      "name": "addPoints",
      "outputs": [],
      "stateMutability": "nonpayable",
      "type": "function"
    },
    {
      "inputs": [
        {
          "internalType": "address",
          "name": "user",
          "type": "address"
        }
      ],
      "name": "addToWhitelist",
      "outputs": [],
      "stateMutability": "nonpayable",
      "type": "function"
    },
    {
      "inputs": [
        {
          "internalType": "address",
          "name": "user",
          "type": "address"
        },
        {
          "internalType": "string",
          "name": "fishName",
          "type": "string"
        }
      ],
      "name": "catchFish",
      "outputs": [],
      "stateMutability": "nonpayable",
      "type": "function"
    },
    {
      "inputs": [
        {
          "internalType": "address",
          "name": "user",
          "type": "address"
        }
      ],
      "name": "dailyLogin",
      "outputs": [],
      "stateMutability": "nonpayable",
      "type": "function"
    },
    {
      "inputs": [
        {
          "internalType": "uint256",
          "name": "",
          "type": "uint256"
        }
      ],
      "name": "fishList",
      "outputs": [
        {
          "internalType": "string",
          "name": "fishName",
          "type": "string"
        },
        {
          "internalType": "uint256",
          "name": "rate",
          "type": "uint256"
        },
        {
          "internalType": "uint256",
          "name": "rewardPoint",
          "type": "uint256"
        }
      ],
      "stateMutability": "view",
      "type": "function"
    },
    {
      "inputs": [
        {
          "internalType": "enum SunnySideActivity.Activity",
          "name": "activity",
          "type": "uint8"
        }
      ],
      "name": "getActivityName",
      "outputs": [
        {
          "internalType": "string",
          "name": "",
          "type": "string"
        }
      ],
      "stateMutability": "view",
      "type": "function"
    },
    {
      "inputs": [
        {
          "internalType": "address",
          "name": "user",
          "type": "address"
        }
      ],
      "name": "getActivityPoints",
      "outputs": [
        {
          "internalType": "uint256",
          "name": "",
          "type": "uint256"
        }
      ],
      "stateMutability": "view",
      "type": "function"
    },
    {
      "inputs": [
        {
          "internalType": "address",
          "name": "user",
          "type": "address"
        }
      ],
      "name": "getDailyQuestPoints",
      "outputs": [
        {
          "internalType": "uint256",
          "name": "",
          "type": "uint256"
        }
      ],
      "stateMutability": "view",
      "type": "function"
    },
    {
      "inputs": [
        {
          "internalType": "address",
          "name": "user",
          "type": "address"
        }
      ],
      "name": "getUserPoints",
      "outputs": [
        {
          "internalType": "uint256",
          "name": "",
          "type": "uint256"
        }
      ],
      "stateMutability": "view",
      "type": "function"
    },
    {
      "inputs": [
        {
          "internalType": "address",
          "name": "_owner",
          "type": "address"
        }
      ],
      "name": "initialize",
      "outputs": [],
      "stateMutability": "nonpayable",
      "type": "function"
    },
    {
      "inputs": [
        {
          "internalType": "address",
          "name": "user",
          "type": "address"
        }
      ],
      "name": "isReferred",
      "outputs": [
        {
          "internalType": "bool",
          "name": "",
          "type": "bool"
        }
      ],
      "stateMutability": "view",
      "type": "function"
    },
    {
      "inputs": [
        {
          "internalType": "address",
          "name": "user",
          "type": "address"
        }
      ],
      "name": "isWhitelisted",
      "outputs": [
        {
          "internalType": "bool",
          "name": "",
          "type": "bool"
        }
      ],
      "stateMutability": "view",
      "type": "function"
    },
    {
      "inputs": [
        {
          "internalType": "address",
          "name": "user",
          "type": "address"
        },
        {
          "internalType": "address",
          "name": "referrer",
          "type": "address"
        }
      ],
      "name": "joinWithReferral",
      "outputs": [],
      "stateMutability": "nonpayable",
      "type": "function"
    },
    {
      "inputs": [],
      "name": "owner",
      "outputs": [
        {
          "internalType": "address",
          "name": "",
          "type": "address"
        }
      ],
      "stateMutability": "view",
      "type": "function"
    },
    {
      "inputs": [],
      "name": "paused",
      "outputs": [
        {
          "internalType": "bool",
          "name": "",
          "type": "bool"
        }
      ],
      "stateMutability": "view",
      "type": "function"
    },
    {
      "inputs": [
        {
          "internalType": "address",
          "name": "",
          "type": "address"
        }
      ],
      "name": "referralCounts",
      "outputs": [
        {
          "internalType": "uint256",
          "name": "",
          "type": "uint256"
        }
      ],
      "stateMutability": "view",
      "type": "function"
    },
    {
      "inputs": [],
      "name": "renounceOwnership",
      "outputs": [],
      "stateMutability": "nonpayable",
      "type": "function"
    },
    {
      "inputs": [
        {
          "internalType": "address",
          "name": "newOwner",
          "type": "address"
        }
      ],
      "name": "transferOwnership",
      "outputs": [],
      "stateMutability": "nonpayable",
      "type": "function"
    },
    {
      "inputs": [
        {
          "internalType": "uint256",
          "name": "fishIndex",
          "type": "uint256"
        },
        {
          "internalType": "string",
          "name": "fishName",
          "type": "string"
        },
        {
          "internalType": "uint256",
          "name": "rate",
          "type": "uint256"
        },
        {
          "internalType": "uint256",
          "name": "rewardPoint",
          "type": "uint256"
        }
      ],
      "name": "updateListFish",
      "outputs": [],
      "stateMutability": "nonpayable",
      "type": "function"
    },
    {
      "inputs": [
        {
          "internalType": "address",
          "name": "",
          "type": "address"
        }
      ],
      "name": "users",
      "outputs": [
        {
          "internalType": "bool",
          "name": "whitelisted",
          "type": "bool"
        },
        {
          "internalType": "bool",
          "name": "referred",
          "type": "bool"
        },
        {
          "internalType": "address",
          "name": "referrer",
          "type": "address"
        },
        {
          "internalType": "uint256",
          "name": "totalPoints",
          "type": "uint256"
        },
        {
          "internalType": "uint256",
          "name": "dailyQuestPoints",
          "type": "uint256"
        },
        {
          "internalType": "uint256",
          "name": "activityPoints",
          "type": "uint256"
        },
        {
          "internalType": "uint256",
          "name": "lastLogin",
          "type": "uint256"
        },
        {
          "internalType": "uint256",
          "name": "lastActionTime",
          "type": "uint256"
        }
      ],
      "stateMutability": "view",
      "type": "function"
    }
  ],
  "bytecode": "0x608060405234801561001057600080fd5b506040518060400160405280600481526020017f4e6f6e65000000000000000000000000000000000000000000000000000000008152506002600080600481111561005e5761005d610221565b5b8152602001908152602001600020908161007891906104a0565b506040518060400160405280600e81526020017f526566657272616c20426f6e757300000000000000000000000000000000000081525060026000600160048111156100c7576100c6610221565b5b815260200190815260200160002090816100e191906104a0565b506040518060400160405280600b81526020017f4461696c79204c6f67696e00000000000000000000000000000000000000000081525060026000600260048111156101305761012f610221565b5b8152602001908152602001600020908161014a91906104a0565b506040518060400160405280600781526020017f46697368696e6700000000000000000000000000000000000000000000000000815250600260006003600481111561019957610198610221565b5b815260200190815260200160002090816101b391906104a0565b506040518060400160405280600a81526020017f4f70656e204368657374000000000000000000000000000000000000000000008152506002600060048081111561020157610200610221565b5b8152602001908152602001600020908161021b91906104a0565b50610572565b7f4e487b7100000000000000000000000000000000000000000000000000000000600052602160045260246000fd5b600081519050919050565b7f4e487b7100000000000000000000000000000000000000000000000000000000600052604160045260246000fd5b7f4e487b7100000000000000000000000000000000000000000000000000000000600052602260045260246000fd5b600060028204905060018216806102d157607f821691505b6020821081036102e4576102e361028a565b5b50919050565b60008190508160005260206000209050919050565b60006020601f8301049050919050565b600082821b905092915050565b60006008830261034c7fffffffffffffffffffffffffffffffffffffffffffffffffffffffffffffffff8261030f565b610356868361030f565b95508019841693508086168417925050509392505050565b6000819050919050565b6000819050919050565b600061039d6103986103938461036e565b610378565b61036e565b9050919050565b6000819050919050565b6103b783610382565b6103cb6103c3826103a4565b84845461031c565b825550505050565b600090565b6103e06103d3565b6103eb8184846103ae565b505050565b5b8181101561040f576104046000826103d8565b6001810190506103f1565b5050565b601f82111561045457610425816102ea565b61042e846102ff565b8101602085101561043d578190505b610451610449856102ff565b8301826103f0565b50505b505050565b600082821c905092915050565b600061047760001984600802610459565b1980831691505092915050565b60006104908383610466565b9150826002028217905092915050565b6104a982610250565b67ffffffffffffffff8111156104c2576104c161025b565b5b6104cc82546102b9565b6104d7828285610413565b600060209050601f83116001811461050a57600084156104f8578287015190505b6105028582610484565b86555061056a565b601f198416610518866102ea565b60005b828110156105405784890151825560018201915060208501945060208101905061051b565b8683101561055d5784890151610559601f891682610466565b8355505b6001600288020188555050505b505050505050565b6131e2806105816000396000f3fe608060405234801561001057600080fd5b506004361061018e5760003560e01c8063715018a6116100de578063b46d068d11610097578063cec297a011610071578063cec297a01461049e578063e43252d7146104ce578063f0bc6cfb146104ea578063f2fde38b1461051a5761018e565b8063b46d068d14610436578063c4d66de814610466578063c9d670b9146104825761018e565b8063715018a6146103575780638da5cb5b14610361578063a87430ba1461037f578063aac0b6ef146103b6578063ac2624d1146103d4578063aeefe31f146104065761018e565b80632ed2401b1161014b578063416154411161012557806341615441146102e3578063487cb903146102ff5780635c975abb1461031b5780635cf45ae4146103395761018e565b80632ed2401b1461025357806337c367aa146102835780633af32abf146102b35761018e565b806312029b19146101935780631320652c146101c3578063165519c7146101df5780631b97edea146101fd5780631dc4ac951461021b5780631e5880ef14610237575b600080fd5b6101ad60048036038101906101a89190612418565b610536565b6040516101ba919061245e565b60405180910390f35b6101dd60048036038101906101d89190612479565b610581565b005b6101e7610c0d565b6040516101f4919061245e565b60405180910390f35b610205610c12565b604051610212919061245e565b60405180910390f35b61023560048036038101906102309190612418565b610c17565b005b610251600480360381019061024c919061254a565b610f16565b005b61026d600480360381019061026891906125d2565b61101a565b60405161027a919061268f565b60405180910390f35b61029d60048036038101906102989190612418565b6110ba565b6040516102aa919061245e565b60405180910390f35b6102cd60048036038101906102c89190612418565b611105565b6040516102da91906126cc565b60405180910390f35b6102fd60048036038101906102f8919061270c565b61115d565b005b6103196004803603810190610314919061275f565b611380565b005b61032361168e565b60405161033091906126cc565b60405180910390f35b6103416116b3565b60405161034e919061245e565b60405180910390f35b61035f6116b8565b005b6103696116cc565b60405161037691906127ce565b60405180910390f35b61039960048036038101906103949190612418565b611704565b6040516103ad9897969594939291906127e9565b60405180910390f35b6103be611786565b6040516103cb919061245e565b60405180910390f35b6103ee60048036038101906103e991906125d2565b61178c565b6040516103fd93929190612867565b60405180910390f35b610420600480360381019061041b9190612418565b61184e565b60405161042d919061245e565b60405180910390f35b610450600480360381019061044b91906128a5565b611899565b60405161045d919061268f565b60405180910390f35b610480600480360381019061047b9190612418565b611950565b005b61049c600480360381019061049791906128d2565b611cfa565b005b6104b860048036038101906104b39190612418565b611dbe565b6040516104c5919061245e565b60405180910390f35b6104e860048036038101906104e39190612418565b611dd6565b005b61050460048036038101906104ff9190612418565b611f18565b60405161051191906126cc565b60405180910390f35b610534600480360381019061052f9190612418565b611f70565b005b60008060008373ffffffffffffffffffffffffffffffffffffffff1673ffffffffffffffffffffffffffffffffffffffff168152602001908152602001600020600201549050919050565b610589611ff6565b61059161207d565b600073ffffffffffffffffffffffffffffffffffffffff168273ffffffffffffffffffffffffffffffffffffffff1603610600576040517f08c379a00000000000000000000000000000000000000000000000000000000081526004016105f790612992565b60405180910390fd5b6000808373ffffffffffffffffffffffffffffffffffffffff1673ffffffffffffffffffffffffffffffffffffffff16815260200190815260200160002060000160009054906101000a900460ff1615610686576040517fad8a9d4500000000000000000000000000000000000000000000000000000000815260040160405180910390fd5b60016000808473ffffffffffffffffffffffffffffffffffffffff1673ffffffffffffffffffffffffffffffffffffffff16815260200190815260200160002060000160006101000a81548160ff0219169083151502179055508073ffffffffffffffffffffffffffffffffffffffff168273ffffffffffffffffffffffffffffffffffffffff160361074e576040517f08c379a0000000000000000000000000000000000000000000000000000000008152600401610745906129fe565b60405180910390fd5b6000808373ffffffffffffffffffffffffffffffffffffffff1673ffffffffffffffffffffffffffffffffffffffff16815260200190815260200160002060000160019054906101000a900460ff16156107dd576040517f08c379a00000000000000000000000000000000000000000000000000000000081526004016107d490612a6a565b60405180910390fd5b6000808273ffffffffffffffffffffffffffffffffffffffff1673ffffffffffffffffffffffffffffffffffffffff16815260200190815260200160002060000160009054906101000a900460ff1661086b576040517f08c379a000000000000000000000000000000000000000000000000000000000815260040161086290612ad6565b60405180910390fd5b60016000808473ffffffffffffffffffffffffffffffffffffffff1673ffffffffffffffffffffffffffffffffffffffff16815260200190815260200160002060000160016101000a81548160ff021916908315150217905550806000808473ffffffffffffffffffffffffffffffffffffffff1673ffffffffffffffffffffffffffffffffffffffff16815260200190815260200160002060000160026101000a81548173ffffffffffffffffffffffffffffffffffffffff021916908373ffffffffffffffffffffffffffffffffffffffff16021790555060646000808373ffffffffffffffffffffffffffffffffffffffff1673ffffffffffffffffffffffffffffffffffffffff16815260200190815260200160002060010160008282546109979190612b25565b9250508190555060326000808473ffffffffffffffffffffffffffffffffffffffff1673ffffffffffffffffffffffffffffffffffffffff16815260200190815260200160002060010160008282546109f09190612b25565b92505081905550600160008273ffffffffffffffffffffffffffffffffffffffff1673ffffffffffffffffffffffffffffffffffffffff1681526020019081526020016000206000815480929190610a4790612b59565b91905055508173ffffffffffffffffffffffffffffffffffffffff168173ffffffffffffffffffffffffffffffffffffffff167f120a39b187a453a7e77f988aa800308f7be6fc53f0560150d271228c510a678f60405160405180910390a36002600060016004811115610abe57610abd612ba1565b5b8152602001908152602001600020604051610ad99190612cd3565b60405180910390208273ffffffffffffffffffffffffffffffffffffffff167f1779922ed30f40fbb217ea9165b8ee0f2f2369809997fcb0691fa302aab662196032604051610b28919061245e565b60405180910390a36002600060016004811115610b4857610b47612ba1565b5b8152602001908152602001600020604051610b639190612cd3565b60405180910390208173ffffffffffffffffffffffffffffffffffffffff167f1779922ed30f40fbb217ea9165b8ee0f2f2369809997fcb0691fa302aab662196064604051610bb2919061245e565b60405180910390a38173ffffffffffffffffffffffffffffffffffffffff167fa2bbb16ff85c602404a1b34adbc6ed0d773b2a13ff86b91bc4670ac961e88b186001604051610c0191906126cc565b60405180910390a25050565b606481565b603281565b806000808273ffffffffffffffffffffffffffffffffffffffff1673ffffffffffffffffffffffffffffffffffffffff16815260200190815260200160002060000160009054906101000a900460ff16610ca6576040517f08c379a0000000000000000000000000000000000000000000000000000000008152600401610c9d90612d36565b60405180910390fd5b610cae611ff6565b610cb661207d565b620151806000808473ffffffffffffffffffffffffffffffffffffffff1673ffffffffffffffffffffffffffffffffffffffff16815260200190815260200160002060040154610d069190612b25565b4211610d3e576040517fd3d5acc500000000000000000000000000000000000000000000000000000000815260040160405180910390fd5b600060059050806000808573ffffffffffffffffffffffffffffffffffffffff1673ffffffffffffffffffffffffffffffffffffffff1681526020019081526020016000206002016000828254610d959190612b25565b92505081905550806000808573ffffffffffffffffffffffffffffffffffffffff1673ffffffffffffffffffffffffffffffffffffffff1681526020019081526020016000206001016000828254610ded9190612b25565b92505081905550426000808573ffffffffffffffffffffffffffffffffffffffff1673ffffffffffffffffffffffffffffffffffffffff168152602001908152602001600020600401819055508273ffffffffffffffffffffffffffffffffffffffff167fa7984f7a07160ecf241ad41f7ebefaf9390ecdd5ba86a737c0f68ddf216dad6782604051610e80919061245e565b60405180910390a26002600060026004811115610ea057610e9f612ba1565b5b8152602001908152602001600020604051610ebb9190612cd3565b60405180910390208373ffffffffffffffffffffffffffffffffffffffff167f1779922ed30f40fbb217ea9165b8ee0f2f2369809997fcb0691fa302aab6621983604051610f09919061245e565b60405180910390a3505050565b610f1e611ff6565b6003805490508510610f65576040517f08c379a0000000000000000000000000000000000000000000000000000000008152600401610f5c90612da2565b60405180910390fd5b604051806060016040528085858080601f016020809104026020016040519081016040528093929190818152602001838380828437600081840152601f19601f8201169050808301925050505050505081526020018381526020018281525060038681548110610fd857610fd7612dc2565b5b90600052602060002090600302016000820151816000019081610ffb9190612fb7565b5060208201518160010155604082015181600201559050505050505050565b6002602052806000526040600020600091509050805461103990612bff565b80601f016020809104026020016040519081016040528092919081815260200182805461106590612bff565b80156110b25780601f10611087576101008083540402835291602001916110b2565b820191906000526020600020905b81548152906001019060200180831161109557829003601f168201915b505050505081565b60008060008373ffffffffffffffffffffffffffffffffffffffff1673ffffffffffffffffffffffffffffffffffffffff168152602001908152602001600020600301549050919050565b60008060008373ffffffffffffffffffffffffffffffffffffffff1673ffffffffffffffffffffffffffffffffffffffff16815260200190815260200160002060000160009054906101000a900460ff169050919050565b826000808273ffffffffffffffffffffffffffffffffffffffff1673ffffffffffffffffffffffffffffffffffffffff16815260200190815260200160002060000160009054906101000a900460ff166111ec576040517f08c379a00000000000000000000000000000000000000000000000000000000081526004016111e390612d36565b60405180910390fd5b6111f4611ff6565b6111fc61207d565b816000808673ffffffffffffffffffffffffffffffffffffffff1673ffffffffffffffffffffffffffffffffffffffff168152602001908152602001600020600301600082825461124d9190612b25565b92505081905550816000808673ffffffffffffffffffffffffffffffffffffffff1673ffffffffffffffffffffffffffffffffffffffff16815260200190815260200160002060010160008282546112a59190612b25565b92505081905550426000808673ffffffffffffffffffffffffffffffffffffffff1673ffffffffffffffffffffffffffffffffffffffff168152602001908152602001600020600501819055506002600084600481111561130957611308612ba1565b5b81526020019081526020016000206040516113249190612cd3565b60405180910390208473ffffffffffffffffffffffffffffffffffffffff167f1779922ed30f40fbb217ea9165b8ee0f2f2369809997fcb0691fa302aab6621984604051611372919061245e565b60405180910390a350505050565b826000808273ffffffffffffffffffffffffffffffffffffffff1673ffffffffffffffffffffffffffffffffffffffff16815260200190815260200160002060000160009054906101000a900460ff1661140f576040517f08c379a000000000000000000000000000000000000000000000000000000000815260040161140690612d36565b60405180910390fd5b611417611ff6565b61141f61207d565b60008060005b6003805490508110156114e95785856040516020016114459291906130bd565b604051602081830303815290604052805190602001206003828154811061146f5761146e612dc2565b5b90600052602060002090600302016000016040516020016114909190612cd3565b60405160208183030381529060405280519060200120036114dc5760019250600381815481106114c3576114c2612dc2565b5b90600052602060002090600302016002015491506114e9565b8080600101915050611425565b508161152a576040517f08c379a000000000000000000000000000000000000000000000000000000000815260040161152190613122565b60405180910390fd5b806000808873ffffffffffffffffffffffffffffffffffffffff1673ffffffffffffffffffffffffffffffffffffffff168152602001908152602001600020600301600082825461157b9190612b25565b92505081905550806000808873ffffffffffffffffffffffffffffffffffffffff1673ffffffffffffffffffffffffffffffffffffffff16815260200190815260200160002060010160008282546115d39190612b25565b92505081905550426000808873ffffffffffffffffffffffffffffffffffffffff1673ffffffffffffffffffffffffffffffffffffffff1681526020019081526020016000206005018190555084846040516116309291906130bd565b60405180910390208673ffffffffffffffffffffffffffffffffffffffff167ffd1077fbc8d37560df7b98613538f73e5ad38a49da71d4cbfd8c95d96e8a9b348360405161167e919061245e565b60405180910390a3505050505050565b6000806116996120be565b90508060000160009054906101000a900460ff1691505090565b600581565b6116c0611ff6565b6116ca60006120e6565b565b6000806116d76121bd565b90508060000160009054906101000a900473ffffffffffffffffffffffffffffffffffffffff1691505090565b60006020528060005260406000206000915090508060000160009054906101000a900460ff16908060000160019054906101000a900460ff16908060000160029054906101000a900473ffffffffffffffffffffffffffffffffffffffff16908060010154908060020154908060030154908060040154908060050154905088565b610a8c81565b6003818154811061179c57600080fd5b90600052602060002090600302016000915090508060000180546117bf90612bff565b80601f01602080910402602001604051908101604052809291908181526020018280546117eb90612bff565b80156118385780601f1061180d57610100808354040283529160200191611838565b820191906000526020600020905b81548152906001019060200180831161181b57829003601f168201915b5050505050908060010154908060020154905083565b60008060008373ffffffffffffffffffffffffffffffffffffffff1673ffffffffffffffffffffffffffffffffffffffff168152602001908152602001600020600101549050919050565b6060600260008360048111156118b2576118b1612ba1565b5b815260200190815260200160002080546118cb90612bff565b80601f01602080910402602001604051908101604052809291908181526020018280546118f790612bff565b80156119445780601f1061191957610100808354040283529160200191611944565b820191906000526020600020905b81548152906001019060200180831161192757829003601f168201915b50505050509050919050565b600061195a6121e5565b905060008160000160089054906101000a900460ff1615905060008260000160009054906101000a900467ffffffffffffffff1690506000808267ffffffffffffffff161480156119a85750825b9050600060018367ffffffffffffffff161480156119dd575060003073ffffffffffffffffffffffffffffffffffffffff163b145b9050811580156119eb575080155b15611a22576040517ff92ee8a900000000000000000000000000000000000000000000000000000000815260040160405180910390fd5b60018560000160006101000a81548167ffffffffffffffff021916908367ffffffffffffffff1602179055508315611a725760018560000160086101000a81548160ff0219169083151502179055505b611a7b8661220d565b611a83612221565b611a8b612233565b6040518060400160405280600481526020017f4e6f6e650000000000000000000000000000000000000000000000000000000081525060026000806004811115611ad857611ad7612ba1565b5b81526020019081526020016000209081611af29190612fb7565b506040518060400160405280600e81526020017f526566657272616c20426f6e75730000000000000000000000000000000000008152506002600060016004811115611b4157611b40612ba1565b5b81526020019081526020016000209081611b5b9190612fb7565b506040518060400160405280600b81526020017f4461696c79204c6f67696e0000000000000000000000000000000000000000008152506002600060026004811115611baa57611ba9612ba1565b5b81526020019081526020016000209081611bc49190612fb7565b506040518060400160405280600781526020017f46697368696e67000000000000000000000000000000000000000000000000008152506002600060036004811115611c1357611c12612ba1565b5b81526020019081526020016000209081611c2d9190612fb7565b506040518060400160405280600a81526020017f4f70656e2043686573740000000000000000000000000000000000000000000081525060026000600480811115611c7b57611c7a612ba1565b5b81526020019081526020016000209081611c959190612fb7565b508315611cf25760008560000160086101000a81548160ff0219169083151502179055507fc7f505b2f371ae2175ee4913f4499e1f2633a7b5936321eed1cdaeb6115181d26001604051611ce99190613191565b60405180910390a15b505050505050565b611d02611ff6565b6003604051806060016040528086868080601f016020809104026020016040519081016040528093929190818152602001838380828437600081840152601f19601f8201169050808301925050505050505081526020018481526020018381525090806001815401808255809150506001900390600052602060002090600302016000909190919091506000820151816000019081611da19190612fb7565b506020820151816001015560408201518160020155505050505050565b60016020528060005260406000206000915090505481565b611dde611ff6565b611de661207d565b6000808273ffffffffffffffffffffffffffffffffffffffff1673ffffffffffffffffffffffffffffffffffffffff16815260200190815260200160002060000160009054906101000a900460ff1615611e6c576040517fad8a9d4500000000000000000000000000000000000000000000000000000000815260040160405180910390fd5b60016000808373ffffffffffffffffffffffffffffffffffffffff1673ffffffffffffffffffffffffffffffffffffffff16815260200190815260200160002060000160006101000a81548160ff0219169083151502179055508073ffffffffffffffffffffffffffffffffffffffff167fa2bbb16ff85c602404a1b34adbc6ed0d773b2a13ff86b91bc4670ac961e88b186001604051611f0d91906126cc565b60405180910390a250565b60008060008373ffffffffffffffffffffffffffffffffffffffff1673ffffffffffffffffffffffffffffffffffffffff16815260200190815260200160002060000160019054906101000a900460ff169050919050565b611f78611ff6565b600073ffffffffffffffffffffffffffffffffffffffff168173ffffffffffffffffffffffffffffffffffffffff1603611fea5760006040517f1e4fbdf7000000000000000000000000000000000000000000000000000000008152600401611fe191906127ce565b60405180910390fd5b611ff3816120e6565b50565b611ffe612245565b73ffffffffffffffffffffffffffffffffffffffff1661201c6116cc565b73ffffffffffffffffffffffffffffffffffffffff161461207b5761203f612245565b6040517f118cdaa700000000000000000000000000000000000000000000000000000000815260040161207291906127ce565b60405180910390fd5b565b61208561168e565b156120bc576040517fd93c066500000000000000000000000000000000000000000000000000000000815260040160405180910390fd5b565b60007fcd5ed15c6e187e77e9aee88184c21f4f2182ab5827cb3b7e07fbedcd63f03300905090565b60006120f06121bd565b905060008160000160009054906101000a900473ffffffffffffffffffffffffffffffffffffffff169050828260000160006101000a81548173ffffffffffffffffffffffffffffffffffffffff021916908373ffffffffffffffffffffffffffffffffffffffff1602179055508273ffffffffffffffffffffffffffffffffffffffff168173ffffffffffffffffffffffffffffffffffffffff167f8be0079c531659141344cd1fd0a4f28419497f9722a3daafe3b4186f6b6457e060405160405180910390a3505050565b60007f9016d09d72d40fdae2fd8ceac6b6234c7706214fd39c1cd1e609a0528c199300905090565b60007ff0c57e16840df040f15088dc2f81fe391c3923bec73e23a9662efc9c229c6a00905090565b61221561224d565b61221e8161228d565b50565b61222961224d565b612231612313565b565b61223b61224d565b612243612347565b565b600033905090565b612255612368565b61228b576040517fd7e6bcf800000000000000000000000000000000000000000000000000000000815260040160405180910390fd5b565b61229561224d565b600073ffffffffffffffffffffffffffffffffffffffff168173ffffffffffffffffffffffffffffffffffffffff16036123075760006040517f1e4fbdf70000000000000000000000000000000000000000000000000000000081526004016122fe91906127ce565b60405180910390fd5b612310816120e6565b50565b61231b61224d565b60006123256120be565b905060008160000160006101000a81548160ff02191690831515021790555050565b61234f61224d565b6000612359612388565b90506001816000018190555050565b60006123726121e5565b60000160089054906101000a900460ff16905090565b60007f9b779b17422d0df92223018b32b4d1fa46e071723d6817e2486d003becc55f00905090565b600080fd5b600080fd5b600073ffffffffffffffffffffffffffffffffffffffff82169050919050565b60006123e5826123ba565b9050919050565b6123f5816123da565b811461240057600080fd5b50565b600081359050612412816123ec565b92915050565b60006020828403121561242e5761242d6123b0565b5b600061243c84828501612403565b91505092915050565b6000819050919050565b61245881612445565b82525050565b6000602082019050612473600083018461244f565b92915050565b600080604083850312156124905761248f6123b0565b5b600061249e85828601612403565b92505060206124af85828601612403565b9150509250929050565b6124c281612445565b81146124cd57600080fd5b50565b6000813590506124df816124b9565b92915050565b600080fd5b600080fd5b600080fd5b60008083601f84011261250a576125096124e5565b5b8235905067ffffffffffffffff811115612527576125266124ea565b5b602083019150836001820283011115612543576125426124ef565b5b9250929050565b600080600080600060808688031215612566576125656123b0565b5b6000612574888289016124d0565b955050602086013567ffffffffffffffff811115612595576125946123b5565b5b6125a1888289016124f4565b945094505060406125b4888289016124d0565b92505060606125c5888289016124d0565b9150509295509295909350565b6000602082840312156125e8576125e76123b0565b5b60006125f6848285016124d0565b91505092915050565b600081519050919050565b600082825260208201905092915050565b60005b8381101561263957808201518184015260208101905061261e565b60008484015250505050565b6000601f19601f8301169050919050565b6000612661826125ff565b61266b818561260a565b935061267b81856020860161261b565b61268481612645565b840191505092915050565b600060208201905081810360008301526126a98184612656565b905092915050565b60008115159050919050565b6126c6816126b1565b82525050565b60006020820190506126e160008301846126bd565b92915050565b600581106126f457600080fd5b50565b600081359050612706816126e7565b92915050565b600080600060608486031215612725576127246123b0565b5b600061273386828701612403565b9350506020612744868287016126f7565b9250506040612755868287016124d0565b9150509250925092565b600080600060408486031215612778576127776123b0565b5b600061278686828701612403565b935050602084013567ffffffffffffffff8111156127a7576127a66123b5565b5b6127b3868287016124f4565b92509250509250925092565b6127c8816123da565b82525050565b60006020820190506127e360008301846127bf565b92915050565b6000610100820190506127ff600083018b6126bd565b61280c602083018a6126bd565b61281960408301896127bf565b612826606083018861244f565b612833608083018761244f565b61284060a083018661244f565b61284d60c083018561244f565b61285a60e083018461244f565b9998505050505050505050565b600060608201905081810360008301526128818186612656565b9050612890602083018561244f565b61289d604083018461244f565b949350505050565b6000602082840312156128bb576128ba6123b0565b5b60006128c9848285016126f7565b91505092915050565b600080600080606085870312156128ec576128eb6123b0565b5b600085013567ffffffffffffffff81111561290a576129096123b5565b5b612916878288016124f4565b94509450506020612929878288016124d0565b925050604061293a878288016124d0565b91505092959194509250565b7f496e76616c696420416464726573730000000000000000000000000000000000600082015250565b600061297c600f8361260a565b915061298782612946565b602082019050919050565b600060208201905081810360008301526129ab8161296f565b9050919050565b7f43616e6e6f742072656665722073656c66000000000000000000000000000000600082015250565b60006129e860118361260a565b91506129f3826129b2565b602082019050919050565b60006020820190508181036000830152612a17816129db565b9050919050565b7f416c726561647920726566657272656400000000000000000000000000000000600082015250565b6000612a5460108361260a565b9150612a5f82612a1e565b602082019050919050565b60006020820190508181036000830152612a8381612a47565b9050919050565b7f5265666572726572206e6f742077686974656c69737465640000000000000000600082015250565b6000612ac060188361260a565b9150612acb82612a8a565b602082019050919050565b60006020820190508181036000830152612aef81612ab3565b9050919050565b7f4e487b7100000000000000000000000000000000000000000000000000000000600052601160045260246000fd5b6000612b3082612445565b9150612b3b83612445565b9250828201905080821115612b5357612b52612af6565b5b92915050565b6000612b6482612445565b91507fffffffffffffffffffffffffffffffffffffffffffffffffffffffffffffffff8203612b9657612b95612af6565b5b600182019050919050565b7f4e487b7100000000000000000000000000000000000000000000000000000000600052602160045260246000fd5b7f4e487b7100000000000000000000000000000000000000000000000000000000600052602260045260246000fd5b60006002820490506001821680612c1757607f821691505b602082108103612c2a57612c29612bd0565b5b50919050565b600081905092915050565b60008190508160005260206000209050919050565b60008154612c5d81612bff565b612c678186612c30565b94506001821660008114612c825760018114612c9757612cca565b60ff1983168652811515820286019350612cca565b612ca085612c3b565b60005b83811015612cc257815481890152600182019150602081019050612ca3565b838801955050505b50505092915050565b6000612cdf8284612c50565b915081905092915050565b7f55736572206e6f742077686974656c6973746564000000000000000000000000600082015250565b6000612d2060148361260a565b9150612d2b82612cea565b602082019050919050565b60006020820190508181036000830152612d4f81612d13565b9050919050565b7f496e76616c6964206669736820696e6465780000000000000000000000000000600082015250565b6000612d8c60128361260a565b9150612d9782612d56565b602082019050919050565b60006020820190508181036000830152612dbb81612d7f565b9050919050565b7f4e487b7100000000000000000000000000000000000000000000000000000000600052603260045260246000fd5b7f4e487b7100000000000000000000000000000000000000000000000000000000600052604160045260246000fd5b60006020601f8301049050919050565b600082821b905092915050565b600060088302612e6d7fffffffffffffffffffffffffffffffffffffffffffffffffffffffffffffffff82612e30565b612e778683612e30565b95508019841693508086168417925050509392505050565b6000819050919050565b6000612eb4612eaf612eaa84612445565b612e8f565b612445565b9050919050565b6000819050919050565b612ece83612e99565b612ee2612eda82612ebb565b848454612e3d565b825550505050565b600090565b612ef7612eea565b612f02818484612ec5565b505050565b5b81811015612f2657612f1b600082612eef565b600181019050612f08565b5050565b601f821115612f6b57612f3c81612c3b565b612f4584612e20565b81016020851015612f54578190505b612f68612f6085612e20565b830182612f07565b50505b505050565b600082821c905092915050565b6000612f8e60001984600802612f70565b1980831691505092915050565b6000612fa78383612f7d565b9150826002028217905092915050565b612fc0826125ff565b67ffffffffffffffff811115612fd957612fd8612df1565b5b612fe38254612bff565b612fee828285612f2a565b600060209050601f831160018114613021576000841561300f578287015190505b6130198582612f9b565b865550613081565b601f19841661302f86612c3b565b60005b8281101561305757848901518255600182019150602085019450602081019050613032565b868310156130745784890151613070601f891682612f7d565b8355505b6001600288020188555050505b505050505050565b82818337600083830152505050565b60006130a48385612c30565b93506130b1838584613089565b82840190509392505050565b60006130ca828486613098565b91508190509392505050565b7f46697368206e6f7420666f756e64000000000000000000000000000000000000600082015250565b600061310c600e8361260a565b9150613117826130d6565b602082019050919050565b6000602082019050818103600083015261313b816130ff565b9050919050565b6000819050919050565b600067ffffffffffffffff82169050919050565b600061317b61317661317184613142565b612e8f565b61314c565b9050919050565b61318b81613160565b82525050565b60006020820190506131a66000830184613182565b9291505056fea264697066735822122072e45ae48db48a3fcff7718129a6005ad42e5495b9c9102b1060f733f456330a64736f6c634300081c0033",
  "linkReferences": {},
  "deployedLinkReferences": {}
}